{
  "contractName": "IdentityDirectory",
  "abi": [
    {
      "inputs": [],
      "stateMutability": "nonpayable",
      "type": "constructor"
    },
    {
      "anonymous": false,
      "inputs": [
        {
          "indexed": true,
          "internalType": "string",
          "name": "signedId",
          "type": "string"
        },
        {
          "components": [
            {
              "components": [
                {
                  "internalType": "bool",
                  "name": "dns",
                  "type": "bool"
                },
                {
                  "internalType": "bool",
                  "name": "email",
                  "type": "bool"
                },
                {
                  "internalType": "bool",
                  "name": "web1",
                  "type": "bool"
                },
                {
                  "internalType": "bool",
                  "name": "social",
                  "type": "bool"
                },
                {
                  "internalType": "bool",
                  "name": "service",
                  "type": "bool"
                },
                {
                  "internalType": "bool",
                  "name": "web2",
                  "type": "bool"
                },
                {
                  "internalType": "bool",
                  "name": "web3",
                  "type": "bool"
                },
                {
                  "internalType": "bool",
                  "name": "hashed",
                  "type": "bool"
                }
              ],
              "internalType": "struct IdentityDirectory.IdType",
              "name": "idType",
              "type": "tuple"
            },
            {
              "components": [
                {
                  "internalType": "bool",
                  "name": "claimed",
                  "type": "bool"
                },
                {
                  "internalType": "bool",
                  "name": "signed",
                  "type": "bool"
                },
                {
                  "internalType": "bool",
                  "name": "validated",
                  "type": "bool"
                },
                {
                  "internalType": "bool",
                  "name": "rejected",
                  "type": "bool"
                },
                {
                  "internalType": "bool",
                  "name": "listed",
                  "type": "bool"
                },
                {
                  "internalType": "bool",
                  "name": "frozen",
                  "type": "bool"
                },
                {
                  "internalType": "bool",
                  "name": "reserved",
                  "type": "bool"
                },
                {
                  "internalType": "bool",
                  "name": "futureUse",
                  "type": "bool"
                }
              ],
              "internalType": "struct IdentityDirectory.IdStatus",
              "name": "idStatus",
              "type": "tuple"
            },
            {
              "components": [
                {
                  "internalType": "bytes32",
                  "name": "r",
                  "type": "bytes32"
                },
                {
                  "internalType": "bytes32",
                  "name": "s",
                  "type": "bytes32"
                },
                {
                  "internalType": "uint8",
                  "name": "v",
                  "type": "uint8"
                }
              ],
              "internalType": "struct IdentityDirectory.Signature",
              "name": "registrant",
              "type": "tuple"
            }
          ],
          "indexed": false,
          "internalType": "struct IdentityDirectory.ClaimedId",
          "name": "request",
          "type": "tuple"
        }
      ],
      "name": "ClaimedIdAlert",
      "type": "event"
    },
    {
      "inputs": [
        {
          "internalType": "address",
          "name": "",
          "type": "address"
        },
        {
          "internalType": "string",
          "name": "",
          "type": "string"
        },
        {
          "internalType": "address",
          "name": "",
          "type": "address"
        }
      ],
      "name": "claimedRecord",
      "outputs": [
        {
          "components": [
            {
              "internalType": "bool",
              "name": "dns",
              "type": "bool"
            },
            {
              "internalType": "bool",
              "name": "email",
              "type": "bool"
            },
            {
              "internalType": "bool",
              "name": "web1",
              "type": "bool"
            },
            {
              "internalType": "bool",
              "name": "social",
              "type": "bool"
            },
            {
              "internalType": "bool",
              "name": "service",
              "type": "bool"
            },
            {
              "internalType": "bool",
              "name": "web2",
              "type": "bool"
            },
            {
              "internalType": "bool",
              "name": "web3",
              "type": "bool"
            },
            {
              "internalType": "bool",
              "name": "hashed",
              "type": "bool"
            }
          ],
          "internalType": "struct IdentityDirectory.IdType",
          "name": "idType",
          "type": "tuple"
        },
        {
          "components": [
            {
              "internalType": "bool",
              "name": "claimed",
              "type": "bool"
            },
            {
              "internalType": "bool",
              "name": "signed",
              "type": "bool"
            },
            {
              "internalType": "bool",
              "name": "validated",
              "type": "bool"
            },
            {
              "internalType": "bool",
              "name": "rejected",
              "type": "bool"
            },
            {
              "internalType": "bool",
              "name": "listed",
              "type": "bool"
            },
            {
              "internalType": "bool",
              "name": "frozen",
              "type": "bool"
            },
            {
              "internalType": "bool",
              "name": "reserved",
              "type": "bool"
            },
            {
              "internalType": "bool",
              "name": "futureUse",
              "type": "bool"
            }
          ],
          "internalType": "struct IdentityDirectory.IdStatus",
          "name": "idStatus",
          "type": "tuple"
        },
        {
          "components": [
            {
              "internalType": "bytes32",
              "name": "r",
              "type": "bytes32"
            },
            {
              "internalType": "bytes32",
              "name": "s",
              "type": "bytes32"
            },
            {
              "internalType": "uint8",
              "name": "v",
              "type": "uint8"
            }
          ],
          "internalType": "struct IdentityDirectory.Signature",
          "name": "registrant",
          "type": "tuple"
        }
      ],
      "stateMutability": "view",
      "type": "function"
    },
    {
      "inputs": [
        {
          "internalType": "string",
          "name": "",
          "type": "string"
        }
      ],
      "name": "i",
      "outputs": [
        {
          "components": [
            {
              "components": [
                {
                  "components": [
                    {
                      "internalType": "bool",
                      "name": "dns",
                      "type": "bool"
                    },
                    {
                      "internalType": "bool",
                      "name": "email",
                      "type": "bool"
                    },
                    {
                      "internalType": "bool",
                      "name": "web1",
                      "type": "bool"
                    },
                    {
                      "internalType": "bool",
                      "name": "social",
                      "type": "bool"
                    },
                    {
                      "internalType": "bool",
                      "name": "service",
                      "type": "bool"
                    },
                    {
                      "internalType": "bool",
                      "name": "web2",
                      "type": "bool"
                    },
                    {
                      "internalType": "bool",
                      "name": "web3",
                      "type": "bool"
                    },
                    {
                      "internalType": "bool",
                      "name": "hashed",
                      "type": "bool"
                    }
                  ],
                  "internalType": "struct IdentityDirectory.IdType",
                  "name": "idType",
                  "type": "tuple"
                },
                {
                  "components": [
                    {
                      "internalType": "bool",
                      "name": "claimed",
                      "type": "bool"
                    },
                    {
                      "internalType": "bool",
                      "name": "signed",
                      "type": "bool"
                    },
                    {
                      "internalType": "bool",
                      "name": "validated",
                      "type": "bool"
                    },
                    {
                      "internalType": "bool",
                      "name": "rejected",
                      "type": "bool"
                    },
                    {
                      "internalType": "bool",
                      "name": "listed",
                      "type": "bool"
                    },
                    {
                      "internalType": "bool",
                      "name": "frozen",
                      "type": "bool"
                    },
                    {
                      "internalType": "bool",
                      "name": "reserved",
                      "type": "bool"
                    },
                    {
                      "internalType": "bool",
                      "name": "futureUse",
                      "type": "bool"
                    }
                  ],
                  "internalType": "struct IdentityDirectory.IdStatus",
                  "name": "idStatus",
                  "type": "tuple"
                },
                {
                  "components": [
                    {
                      "internalType": "bytes32",
                      "name": "r",
                      "type": "bytes32"
                    },
                    {
                      "internalType": "bytes32",
                      "name": "s",
                      "type": "bytes32"
                    },
                    {
                      "internalType": "uint8",
                      "name": "v",
                      "type": "uint8"
                    }
                  ],
                  "internalType": "struct IdentityDirectory.Signature",
                  "name": "registrant",
                  "type": "tuple"
                }
              ],
              "internalType": "struct IdentityDirectory.ClaimedId",
              "name": "claimedId",
              "type": "tuple"
            },
            {
              "components": [
                {
                  "internalType": "bool",
                  "name": "witness",
                  "type": "bool"
                },
                {
                  "internalType": "bool",
                  "name": "registrar",
                  "type": "bool"
                },
                {
                  "internalType": "bool",
                  "name": "authority",
                  "type": "bool"
                },
                {
                  "internalType": "bool",
                  "name": "kyc",
                  "type": "bool"
                }
              ],
              "internalType": "struct IdentityDirectory.SigType",
              "name": "sigType",
              "type": "tuple"
            },
            {
              "components": [
                {
                  "internalType": "bytes32",
                  "name": "r",
                  "type": "bytes32"
                },
                {
                  "internalType": "bytes32",
                  "name": "s",
                  "type": "bytes32"
                },
                {
                  "internalType": "uint8",
                  "name": "v",
                  "type": "uint8"
                }
              ],
              "internalType": "struct IdentityDirectory.Signature",
              "name": "signer",
              "type": "tuple"
            }
          ],
          "internalType": "struct IdentityDirectory.IdReceipt",
          "name": "signedId",
          "type": "tuple"
        },
        {
          "internalType": "uint256",
          "name": "totalSigCount",
          "type": "uint256"
        },
        {
          "internalType": "uint256",
          "name": "witnessSigCount",
          "type": "uint256"
        },
        {
          "internalType": "uint256",
          "name": "registrarSigCount",
          "type": "uint256"
        },
        {
          "internalType": "uint256",
          "name": "authoritySigCount",
          "type": "uint256"
        },
        {
          "internalType": "uint256",
          "name": "kycSigCount",
          "type": "uint256"
        }
      ],
      "stateMutability": "view",
      "type": "function"
    },
    {
      "inputs": [
        {
          "internalType": "address",
          "name": "",
          "type": "address"
        }
      ],
      "name": "isFounder",
      "outputs": [
        {
          "internalType": "bool",
          "name": "",
          "type": "bool"
        }
      ],
      "stateMutability": "view",
      "type": "function"
    },
    {
      "inputs": [
        {
          "internalType": "address",
          "name": "",
          "type": "address"
        }
      ],
      "name": "isRegistrar",
      "outputs": [
        {
          "internalType": "bool",
          "name": "",
          "type": "bool"
        }
      ],
      "stateMutability": "view",
      "type": "function"
    },
    {
      "inputs": [],
      "name": "registrarCount",
      "outputs": [
        {
          "internalType": "uint256",
          "name": "",
          "type": "uint256"
        }
      ],
      "stateMutability": "view",
      "type": "function"
    },
    {
      "inputs": [
        {
          "internalType": "address",
          "name": "",
          "type": "address"
        },
        {
          "internalType": "string",
          "name": "",
          "type": "string"
        }
      ],
      "name": "signedRecord",
      "outputs": [
        {
          "components": [
            {
              "components": [
                {
                  "components": [
                    {
                      "internalType": "bool",
                      "name": "dns",
                      "type": "bool"
                    },
                    {
                      "internalType": "bool",
                      "name": "email",
                      "type": "bool"
                    },
                    {
                      "internalType": "bool",
                      "name": "web1",
                      "type": "bool"
                    },
                    {
                      "internalType": "bool",
                      "name": "social",
                      "type": "bool"
                    },
                    {
                      "internalType": "bool",
                      "name": "service",
                      "type": "bool"
                    },
                    {
                      "internalType": "bool",
                      "name": "web2",
                      "type": "bool"
                    },
                    {
                      "internalType": "bool",
                      "name": "web3",
                      "type": "bool"
                    },
                    {
                      "internalType": "bool",
                      "name": "hashed",
                      "type": "bool"
                    }
                  ],
                  "internalType": "struct IdentityDirectory.IdType",
                  "name": "idType",
                  "type": "tuple"
                },
                {
                  "components": [
                    {
                      "internalType": "bool",
                      "name": "claimed",
                      "type": "bool"
                    },
                    {
                      "internalType": "bool",
                      "name": "signed",
                      "type": "bool"
                    },
                    {
                      "internalType": "bool",
                      "name": "validated",
                      "type": "bool"
                    },
                    {
                      "internalType": "bool",
                      "name": "rejected",
                      "type": "bool"
                    },
                    {
                      "internalType": "bool",
                      "name": "listed",
                      "type": "bool"
                    },
                    {
                      "internalType": "bool",
                      "name": "frozen",
                      "type": "bool"
                    },
                    {
                      "internalType": "bool",
                      "name": "reserved",
                      "type": "bool"
                    },
                    {
                      "internalType": "bool",
                      "name": "futureUse",
                      "type": "bool"
                    }
                  ],
                  "internalType": "struct IdentityDirectory.IdStatus",
                  "name": "idStatus",
                  "type": "tuple"
                },
                {
                  "components": [
                    {
                      "internalType": "bytes32",
                      "name": "r",
                      "type": "bytes32"
                    },
                    {
                      "internalType": "bytes32",
                      "name": "s",
                      "type": "bytes32"
                    },
                    {
                      "internalType": "uint8",
                      "name": "v",
                      "type": "uint8"
                    }
                  ],
                  "internalType": "struct IdentityDirectory.Signature",
                  "name": "registrant",
                  "type": "tuple"
                }
              ],
              "internalType": "struct IdentityDirectory.ClaimedId",
              "name": "claimedId",
              "type": "tuple"
            },
            {
              "components": [
                {
                  "internalType": "bool",
                  "name": "witness",
                  "type": "bool"
                },
                {
                  "internalType": "bool",
                  "name": "registrar",
                  "type": "bool"
                },
                {
                  "internalType": "bool",
                  "name": "authority",
                  "type": "bool"
                },
                {
                  "internalType": "bool",
                  "name": "kyc",
                  "type": "bool"
                }
              ],
              "internalType": "struct IdentityDirectory.SigType",
              "name": "sigType",
              "type": "tuple"
            },
            {
              "components": [
                {
                  "internalType": "bytes32",
                  "name": "r",
                  "type": "bytes32"
                },
                {
                  "internalType": "bytes32",
                  "name": "s",
                  "type": "bytes32"
                },
                {
                  "internalType": "uint8",
                  "name": "v",
                  "type": "uint8"
                }
              ],
              "internalType": "struct IdentityDirectory.Signature",
              "name": "signer",
              "type": "tuple"
            }
          ],
          "internalType": "struct IdentityDirectory.IdReceipt",
          "name": "signedId",
          "type": "tuple"
        },
        {
          "internalType": "uint256",
          "name": "totalSigCount",
          "type": "uint256"
        },
        {
          "internalType": "uint256",
          "name": "witnessSigCount",
          "type": "uint256"
        },
        {
          "internalType": "uint256",
          "name": "registrarSigCount",
          "type": "uint256"
        },
        {
          "internalType": "uint256",
          "name": "authoritySigCount",
          "type": "uint256"
        },
        {
          "internalType": "uint256",
          "name": "kycSigCount",
          "type": "uint256"
        }
      ],
      "stateMutability": "view",
      "type": "function"
    },
    {
      "inputs": [
        {
          "internalType": "address",
          "name": "",
          "type": "address"
        },
        {
          "internalType": "string",
          "name": "",
          "type": "string"
        }
      ],
      "name": "signerReceipt",
      "outputs": [
        {
          "components": [
            {
              "components": [
                {
                  "internalType": "bool",
                  "name": "dns",
                  "type": "bool"
                },
                {
                  "internalType": "bool",
                  "name": "email",
                  "type": "bool"
                },
                {
                  "internalType": "bool",
                  "name": "web1",
                  "type": "bool"
                },
                {
                  "internalType": "bool",
                  "name": "social",
                  "type": "bool"
                },
                {
                  "internalType": "bool",
                  "name": "service",
                  "type": "bool"
                },
                {
                  "internalType": "bool",
                  "name": "web2",
                  "type": "bool"
                },
                {
                  "internalType": "bool",
                  "name": "web3",
                  "type": "bool"
                },
                {
                  "internalType": "bool",
                  "name": "hashed",
                  "type": "bool"
                }
              ],
              "internalType": "struct IdentityDirectory.IdType",
              "name": "idType",
              "type": "tuple"
            },
            {
              "components": [
                {
                  "internalType": "bool",
                  "name": "claimed",
                  "type": "bool"
                },
                {
                  "internalType": "bool",
                  "name": "signed",
                  "type": "bool"
                },
                {
                  "internalType": "bool",
                  "name": "validated",
                  "type": "bool"
                },
                {
                  "internalType": "bool",
                  "name": "rejected",
                  "type": "bool"
                },
                {
                  "internalType": "bool",
                  "name": "listed",
                  "type": "bool"
                },
                {
                  "internalType": "bool",
                  "name": "frozen",
                  "type": "bool"
                },
                {
                  "internalType": "bool",
                  "name": "reserved",
                  "type": "bool"
                },
                {
                  "internalType": "bool",
                  "name": "futureUse",
                  "type": "bool"
                }
              ],
              "internalType": "struct IdentityDirectory.IdStatus",
              "name": "idStatus",
              "type": "tuple"
            },
            {
              "components": [
                {
                  "internalType": "bytes32",
                  "name": "r",
                  "type": "bytes32"
                },
                {
                  "internalType": "bytes32",
                  "name": "s",
                  "type": "bytes32"
                },
                {
                  "internalType": "uint8",
                  "name": "v",
                  "type": "uint8"
                }
              ],
              "internalType": "struct IdentityDirectory.Signature",
              "name": "registrant",
              "type": "tuple"
            }
          ],
          "internalType": "struct IdentityDirectory.ClaimedId",
          "name": "claimedId",
          "type": "tuple"
        },
        {
          "components": [
            {
              "internalType": "bool",
              "name": "witness",
              "type": "bool"
            },
            {
              "internalType": "bool",
              "name": "registrar",
              "type": "bool"
            },
            {
              "internalType": "bool",
              "name": "authority",
              "type": "bool"
            },
            {
              "internalType": "bool",
              "name": "kyc",
              "type": "bool"
            }
          ],
          "internalType": "struct IdentityDirectory.SigType",
          "name": "sigType",
          "type": "tuple"
        },
        {
          "components": [
            {
              "internalType": "bytes32",
              "name": "r",
              "type": "bytes32"
            },
            {
              "internalType": "bytes32",
              "name": "s",
              "type": "bytes32"
            },
            {
              "internalType": "uint8",
              "name": "v",
              "type": "uint8"
            }
          ],
          "internalType": "struct IdentityDirectory.Signature",
          "name": "signer",
          "type": "tuple"
        }
      ],
      "stateMutability": "view",
      "type": "function"
    },
    {
      "inputs": [
        {
          "internalType": "address",
          "name": "_witness",
          "type": "address"
        },
        {
          "internalType": "string",
          "name": "_idName",
          "type": "string"
        },
        {
          "components": [
            {
              "internalType": "bytes32",
              "name": "r",
              "type": "bytes32"
            },
            {
              "internalType": "bytes32",
              "name": "s",
              "type": "bytes32"
            },
            {
              "internalType": "uint8",
              "name": "v",
              "type": "uint8"
            }
          ],
          "internalType": "struct IdentityDirectory.Signature",
          "name": "_signature",
          "type": "tuple"
        }
      ],
      "name": "claimIdentity",
      "outputs": [],
      "stateMutability": "nonpayable",
      "type": "function"
    },
    {
      "inputs": [
        {
          "internalType": "string",
          "name": "_idName",
          "type": "string"
        },
        {
          "internalType": "address",
          "name": "_registrant",
          "type": "address"
        },
        {
          "components": [
            {
              "internalType": "bytes32",
              "name": "r",
              "type": "bytes32"
            },
            {
              "internalType": "bytes32",
              "name": "s",
              "type": "bytes32"
            },
            {
              "internalType": "uint8",
              "name": "v",
              "type": "uint8"
            }
          ],
          "internalType": "struct IdentityDirectory.Signature",
          "name": "_signature",
          "type": "tuple"
        }
      ],
      "name": "signIdentity",
      "outputs": [],
      "stateMutability": "nonpayable",
      "type": "function"
    }
  ],
  "bytecode": "0x608060405234801561000f575f80fd5b5060015f80737b9a421575f72d17331ca7433aea46ec5d5b273973ffffffffffffffffffffffffffffffffffffffff1673ffffffffffffffffffffffffffffffffffffffff1681526020019081526020015f205f6101000a81548160ff02191690831515021790555060015f807380484108d571f4ee96521710f5d027e9d2f59adf73ffffffffffffffffffffffffffffffffffffffff1673ffffffffffffffffffffffffffffffffffffffff1681526020019081526020015f205f6101000a81548160ff02191690831515021790555060015f8073e7d3039dfda68ffa9bc56e731cf9e8f85904703d73ffffffffffffffffffffffffffffffffffffffff1673ffffffffffffffffffffffffffffffffffffffff1681526020019081526020015f205f6101000a81548160ff02191690831515021790555060015f8073e0b02a2652caa79041f2798fa615ec39bfbbbfa873ffffffffffffffffffffffffffffffffffffffff1673ffffffffffffffffffffffffffffffffffffffff1681526020019081526020015f205f6101000a81548160ff0219169083151502179055506001805f737b9a421575f72d17331ca7433aea46ec5d5b273973ffffffffffffffffffffffffffffffffffffffff1673ffffffffffffffffffffffffffffffffffffffff1681526020019081526020015f205f6101000a81548160ff0219169083151502179055506001805f7380484108d571f4ee96521710f5d027e9d2f59adf73ffffffffffffffffffffffffffffffffffffffff1673ffffffffffffffffffffffffffffffffffffffff1681526020019081526020015f205f6101000a81548160ff0219169083151502179055506001805f73e7d3039dfda68ffa9bc56e731cf9e8f85904703d73ffffffffffffffffffffffffffffffffffffffff1673ffffffffffffffffffffffffffffffffffffffff1681526020019081526020015f205f6101000a81548160ff0219169083151502179055506001805f73e0b02a2652caa79041f2798fa615ec39bfbbbfa873ffffffffffffffffffffffffffffffffffffffff1673ffffffffffffffffffffffffffffffffffffffff1681526020019081526020015f205f6101000a81548160ff0219169083151502179055506004600281905550613948806103655f395ff3fe608060405234801561000f575f80fd5b5060043610610091575f3560e01c806354a0b6b51161006457806354a0b6b51461013657806362b4f0bb14610168578063c7b5784114610184578063d5db72eb146101b4578063e9120f7f146101e457610091565b806302d88316146100955780631c8f8a93146100ca57806320f53f99146100e85780632bbddde61461011a575b5f80fd5b6100af60048036038101906100aa9190612a56565b610219565b6040516100c196959493929190612d5b565b60405180910390f35b6100d261054e565b6040516100df9190612dc0565b60405180910390f35b61010260048036038101906100fd9190612e33565b610554565b60405161011193929190612f63565b60405180910390f35b610134600480360381019061012f9190613054565b61085b565b005b610150600480360381019061014b91906130c0565b610ec5565b60405161015f9392919061326c565b60405180910390f35b610182600480360381019061017d91906132a4565b611106565b005b61019e60048036038101906101999190613310565b612455565b6040516101ab919061334a565b60405180910390f35b6101ce60048036038101906101c99190613310565b612471565b6040516101db919061334a565b60405180910390f35b6101fe60048036038101906101f99190612e33565b61248e565b60405161021096959493929190612d5b565b60405180910390f35b6007818051602081018201805184825260208301602085012081835280955050505050505f91509050805f016040518060600160405290815f82016040518060600160405290815f8201604051806101000160405290815f82015f9054906101000a900460ff161515151581526020015f820160019054906101000a900460ff161515151581526020015f820160029054906101000a900460ff161515151581526020015f820160039054906101000a900460ff161515151581526020015f820160049054906101000a900460ff161515151581526020015f820160059054906101000a900460ff161515151581526020015f820160069054906101000a900460ff161515151581526020015f820160079054906101000a900460ff161515151581525050815260200160018201604051806101000160405290815f82015f9054906101000a900460ff161515151581526020015f820160019054906101000a900460ff161515151581526020015f820160029054906101000a900460ff161515151581526020015f820160039054906101000a900460ff161515151581526020015f820160049054906101000a900460ff161515151581526020015f820160059054906101000a900460ff161515151581526020015f820160069054906101000a900460ff161515151581526020015f820160079054906101000a900460ff1615151515815250508152602001600282016040518060600160405290815f820154815260200160018201548152602001600282015f9054906101000a900460ff1660ff1660ff1681525050815250508152602001600582016040518060800160405290815f82015f9054906101000a900460ff161515151581526020015f820160019054906101000a900460ff161515151581526020015f820160029054906101000a900460ff161515151581526020015f820160039054906101000a900460ff1615151515815250508152602001600682016040518060600160405290815f820154815260200160018201548152602001600282015f9054906101000a900460ff1660ff1660ff1681525050815250509080600901549080600a01549080600b01549080600c01549080600d0154905086565b60025481565b6004602052815f5260405f20818051602081018201805184825260208301602085012081835280955050505050505f9150915050805f016040518060600160405290815f8201604051806101000160405290815f82015f9054906101000a900460ff161515151581526020015f820160019054906101000a900460ff161515151581526020015f820160029054906101000a900460ff161515151581526020015f820160039054906101000a900460ff161515151581526020015f820160049054906101000a900460ff161515151581526020015f820160059054906101000a900460ff161515151581526020015f820160069054906101000a900460ff161515151581526020015f820160079054906101000a900460ff161515151581525050815260200160018201604051806101000160405290815f82015f9054906101000a900460ff161515151581526020015f820160019054906101000a900460ff161515151581526020015f820160029054906101000a900460ff161515151581526020015f820160039054906101000a900460ff161515151581526020015f820160049054906101000a900460ff161515151581526020015f820160059054906101000a900460ff161515151581526020015f820160069054906101000a900460ff161515151581526020015f820160079054906101000a900460ff1615151515815250508152602001600282016040518060600160405290815f820154815260200160018201548152602001600282015f9054906101000a900460ff1660ff1660ff16815250508152505090806005016040518060800160405290815f82015f9054906101000a900460ff161515151581526020015f820160019054906101000a900460ff161515151581526020015f820160029054906101000a900460ff161515151581526020015f820160039054906101000a900460ff16151515158152505090806006016040518060600160405290815f820154815260200160018201548152602001600282015f9054906101000a900460ff1660ff1660ff1681525050905083565b8273ffffffffffffffffffffffffffffffffffffffff163373ffffffffffffffffffffffffffffffffffffffff16036108c9576040517f08c379a00000000000000000000000000000000000000000000000000000000081526004016108c0906133e3565b60405180910390fd5b60035f8473ffffffffffffffffffffffffffffffffffffffff1673ffffffffffffffffffffffffffffffffffffffff1681526020019081526020015f2082604051610914919061346d565b90815260200160405180910390205f3373ffffffffffffffffffffffffffffffffffffffff1673ffffffffffffffffffffffffffffffffffffffff1681526020019081526020015f206001015f0160039054906101000a900460ff16156109b0576040517f08c379a00000000000000000000000000000000000000000000000000000000081526004016109a7906134f3565b60405180910390fd5b60035f8473ffffffffffffffffffffffffffffffffffffffff1673ffffffffffffffffffffffffffffffffffffffff1681526020019081526020015f20826040516109fb919061346d565b90815260200160405180910390205f3373ffffffffffffffffffffffffffffffffffffffff1673ffffffffffffffffffffffffffffffffffffffff1681526020019081526020015f206001015f015f9054906101000a900460ff1615610a96576040517f08c379a0000000000000000000000000000000000000000000000000000000008152600401610a8d906135a7565b60405180910390fd5b610aa18133846127ce565b610ae0576040517f08c379a0000000000000000000000000000000000000000000000000000000008152600401610ad79061365b565b60405180910390fd5b5f6040518061010001604052806001151581526020015f151581526020015f151581526020015f151581526020015f151581526020015f151581526020015f151581526020015f151581525090505f6040518061010001604052806001151581526020015f151581526020015f151581526020015f151581526020016001151581526020015f151581526020015f151581526020015f151581525090505f60405180606001604052808481526020018381526020018581525090508060035f8873ffffffffffffffffffffffffffffffffffffffff1673ffffffffffffffffffffffffffffffffffffffff1681526020019081526020015f2086604051610be7919061346d565b90815260200160405180910390205f3373ffffffffffffffffffffffffffffffffffffffff1673ffffffffffffffffffffffffffffffffffffffff1681526020019081526020015f205f820151815f015f820151815f015f6101000a81548160ff0219169083151502179055506020820151815f0160016101000a81548160ff0219169083151502179055506040820151815f0160026101000a81548160ff0219169083151502179055506060820151815f0160036101000a81548160ff0219169083151502179055506080820151815f0160046101000a81548160ff02191690831515021790555060a0820151815f0160056101000a81548160ff02191690831515021790555060c0820151815f0160066101000a81548160ff02191690831515021790555060e0820151815f0160076101000a81548160ff02191690831515021790555050506020820151816001015f820151815f015f6101000a81548160ff0219169083151502179055506020820151815f0160016101000a81548160ff0219169083151502179055506040820151815f0160026101000a81548160ff0219169083151502179055506060820151815f0160036101000a81548160ff0219169083151502179055506080820151815f0160046101000a81548160ff02191690831515021790555060a0820151815f0160056101000a81548160ff02191690831515021790555060c0820151815f0160066101000a81548160ff02191690831515021790555060e0820151815f0160076101000a81548160ff02191690831515021790555050506040820151816002015f820151815f0155602082015181600101556040820151816002015f6101000a81548160ff021916908360ff160217905550505090505084604051610e7e919061346d565b60405180910390207ffc6b4a839aff98999e1126330b18b3e2c2447becc091fff9e9d23b0b262f287b82604051610eb59190613679565b60405180910390a2505050505050565b6003602052825f5260405f2082805160208101820180518482526020830160208501208183528095505050505050602052805f5260405f205f925092505050805f01604051806101000160405290815f82015f9054906101000a900460ff161515151581526020015f820160019054906101000a900460ff161515151581526020015f820160029054906101000a900460ff161515151581526020015f820160039054906101000a900460ff161515151581526020015f820160049054906101000a900460ff161515151581526020015f820160059054906101000a900460ff161515151581526020015f820160069054906101000a900460ff161515151581526020015f820160079054906101000a900460ff1615151515815250509080600101604051806101000160405290815f82015f9054906101000a900460ff161515151581526020015f820160019054906101000a900460ff161515151581526020015f820160029054906101000a900460ff161515151581526020015f820160039054906101000a900460ff161515151581526020015f820160049054906101000a900460ff161515151581526020015f820160059054906101000a900460ff161515151581526020015f820160069054906101000a900460ff161515151581526020015f820160079054906101000a900460ff16151515158152505090806002016040518060600160405290815f820154815260200160018201548152602001600282015f9054906101000a900460ff1660ff1660ff1681525050905083565b5f60035f3373ffffffffffffffffffffffffffffffffffffffff1673ffffffffffffffffffffffffffffffffffffffff1681526020019081526020015f2084604051611152919061346d565b90815260200160405180910390205f8473ffffffffffffffffffffffffffffffffffffffff1673ffffffffffffffffffffffffffffffffffffffff1681526020019081526020015f206040518060600160405290815f8201604051806101000160405290815f82015f9054906101000a900460ff161515151581526020015f820160019054906101000a900460ff161515151581526020015f820160029054906101000a900460ff161515151581526020015f820160039054906101000a900460ff161515151581526020015f820160049054906101000a900460ff161515151581526020015f820160059054906101000a900460ff161515151581526020015f820160069054906101000a900460ff161515151581526020015f820160079054906101000a900460ff161515151581525050815260200160018201604051806101000160405290815f82015f9054906101000a900460ff161515151581526020015f820160019054906101000a900460ff161515151581526020015f820160029054906101000a900460ff161515151581526020015f820160039054906101000a900460ff161515151581526020015f820160049054906101000a900460ff161515151581526020015f820160059054906101000a900460ff161515151581526020015f820160069054906101000a900460ff161515151581526020015f820160079054906101000a900460ff1615151515815250508152602001600282016040518060600160405290815f820154815260200160018201548152602001600282015f9054906101000a900460ff1660ff1660ff168152505081525050905080602001515f01516113f9576040517f08c379a00000000000000000000000000000000000000000000000000000000081526004016113f090613729565b60405180910390fd5b80602001516020015115611442576040517f08c379a000000000000000000000000000000000000000000000000000000000815260040161143990613791565b60405180910390fd5b611451816040015184866127ce565b611490576040517f08c379a00000000000000000000000000000000000000000000000000000000081526004016114879061381f565b60405180910390fd5b61149b8233866127ce565b6114da576040517f08c379a00000000000000000000000000000000000000000000000000000000081526004016114d19061365b565b60405180910390fd5b5f60065f8573ffffffffffffffffffffffffffffffffffffffff1673ffffffffffffffffffffffffffffffffffffffff1681526020019081526020015f2085604051611526919061346d565b90815260200160405180910390206040518060c00160405290815f82016040518060600160405290815f82016040518060600160405290815f8201604051806101000160405290815f82015f9054906101000a900460ff161515151581526020015f820160019054906101000a900460ff161515151581526020015f820160029054906101000a900460ff161515151581526020015f820160039054906101000a900460ff161515151581526020015f820160049054906101000a900460ff161515151581526020015f820160059054906101000a900460ff161515151581526020015f820160069054906101000a900460ff161515151581526020015f820160079054906101000a900460ff161515151581525050815260200160018201604051806101000160405290815f82015f9054906101000a900460ff161515151581526020015f820160019054906101000a900460ff161515151581526020015f820160029054906101000a900460ff161515151581526020015f820160039054906101000a900460ff161515151581526020015f820160049054906101000a900460ff161515151581526020015f820160059054906101000a900460ff161515151581526020015f820160069054906101000a900460ff161515151581526020015f820160079054906101000a900460ff1615151515815250508152602001600282016040518060600160405290815f820154815260200160018201548152602001600282015f9054906101000a900460ff1660ff1660ff1681525050815250508152602001600582016040518060800160405290815f82015f9054906101000a900460ff161515151581526020015f820160019054906101000a900460ff161515151581526020015f820160029054906101000a900460ff161515151581526020015f820160039054906101000a900460ff1615151515815250508152602001600682016040518060600160405290815f820154815260200160018201548152602001600282015f9054906101000a900460ff1660ff1660ff168152505081525050815260200160098201548152602001600a8201548152602001600b8201548152602001600c8201548152602001600d8201548152505090506118696128dd565b60015f3373ffffffffffffffffffffffffffffffffffffffff1673ffffffffffffffffffffffffffffffffffffffff1681526020019081526020015f205f9054906101000a900460ff16156118ff578160600180518091906118ca9061386a565b8152505060405180608001604052805f151581526020016001151581526020015f151581526020015f15158152509050611942565b8160400180518091906119119061386a565b8152505060405180608001604052806001151581526020015f151581526020015f151581526020015f151581525090505b8160200180518091906119549061386a565b815250505f6040518060600160405280858152602001838152602001868152509050825f01515f0151602001515f01516119915783815f01819052505b8060045f3373ffffffffffffffffffffffffffffffffffffffff1673ffffffffffffffffffffffffffffffffffffffff1681526020019081526020015f20886040516119dd919061346d565b90815260200160405180910390205f820151815f015f820151815f015f820151815f015f6101000a81548160ff0219169083151502179055506020820151815f0160016101000a81548160ff0219169083151502179055506040820151815f0160026101000a81548160ff0219169083151502179055506060820151815f0160036101000a81548160ff0219169083151502179055506080820151815f0160046101000a81548160ff02191690831515021790555060a0820151815f0160056101000a81548160ff02191690831515021790555060c0820151815f0160066101000a81548160ff02191690831515021790555060e0820151815f0160076101000a81548160ff02191690831515021790555050506020820151816001015f820151815f015f6101000a81548160ff0219169083151502179055506020820151815f0160016101000a81548160ff0219169083151502179055506040820151815f0160026101000a81548160ff0219169083151502179055506060820151815f0160036101000a81548160ff0219169083151502179055506080820151815f0160046101000a81548160ff02191690831515021790555060a0820151815f0160056101000a81548160ff02191690831515021790555060c0820151815f0160066101000a81548160ff02191690831515021790555060e0820151815f0160076101000a81548160ff02191690831515021790555050506040820151816002015f820151815f0155602082015181600101556040820151816002015f6101000a81548160ff021916908360ff160217905550505050506020820151816005015f820151815f015f6101000a81548160ff0219169083151502179055506020820151815f0160016101000a81548160ff0219169083151502179055506040820151815f0160026101000a81548160ff0219169083151502179055506060820151815f0160036101000a81548160ff02191690831515021790555050506040820151816006015f820151815f0155602082015181600101556040820151816002015f6101000a81548160ff021916908360ff160217905550505090505060055f8773ffffffffffffffffffffffffffffffffffffffff1673ffffffffffffffffffffffffffffffffffffffff1681526020019081526020015f2087604051611d41919061346d565b908152602001604051809103902081908060018154018082558091505060019003905f5260205f2090600902015f909190919091505f820151815f015f820151815f015f820151815f015f6101000a81548160ff0219169083151502179055506020820151815f0160016101000a81548160ff0219169083151502179055506040820151815f0160026101000a81548160ff0219169083151502179055506060820151815f0160036101000a81548160ff0219169083151502179055506080820151815f0160046101000a81548160ff02191690831515021790555060a0820151815f0160056101000a81548160ff02191690831515021790555060c0820151815f0160066101000a81548160ff02191690831515021790555060e0820151815f0160076101000a81548160ff02191690831515021790555050506020820151816001015f820151815f015f6101000a81548160ff0219169083151502179055506020820151815f0160016101000a81548160ff0219169083151502179055506040820151815f0160026101000a81548160ff0219169083151502179055506060820151815f0160036101000a81548160ff0219169083151502179055506080820151815f0160046101000a81548160ff02191690831515021790555060a0820151815f0160056101000a81548160ff02191690831515021790555060c0820151815f0160066101000a81548160ff02191690831515021790555060e0820151815f0160076101000a81548160ff02191690831515021790555050506040820151816002015f820151815f0155602082015181600101556040820151816002015f6101000a81548160ff021916908360ff160217905550505050506020820151816005015f820151815f015f6101000a81548160ff0219169083151502179055506020820151815f0160016101000a81548160ff0219169083151502179055506040820151815f0160026101000a81548160ff0219169083151502179055506060820151815f0160036101000a81548160ff02191690831515021790555050506040820151816006015f820151815f0155602082015181600101556040820151816002015f6101000a81548160ff021916908360ff16021790555050505050825f01515f0151602001516080015180156120e1575060015f3373ffffffffffffffffffffffffffffffffffffffff1673ffffffffffffffffffffffffffffffffffffffff1681526020019081526020015f205f9054906101000a900460ff165b1561244c57826007886040516120f7919061346d565b90815260200160405180910390205f820151815f015f820151815f015f820151815f015f820151815f015f6101000a81548160ff0219169083151502179055506020820151815f0160016101000a81548160ff0219169083151502179055506040820151815f0160026101000a81548160ff0219169083151502179055506060820151815f0160036101000a81548160ff0219169083151502179055506080820151815f0160046101000a81548160ff02191690831515021790555060a0820151815f0160056101000a81548160ff02191690831515021790555060c0820151815f0160066101000a81548160ff02191690831515021790555060e0820151815f0160076101000a81548160ff02191690831515021790555050506020820151816001015f820151815f015f6101000a81548160ff0219169083151502179055506020820151815f0160016101000a81548160ff0219169083151502179055506040820151815f0160026101000a81548160ff0219169083151502179055506060820151815f0160036101000a81548160ff0219169083151502179055506080820151815f0160046101000a81548160ff02191690831515021790555060a0820151815f0160056101000a81548160ff02191690831515021790555060c0820151815f0160066101000a81548160ff02191690831515021790555060e0820151815f0160076101000a81548160ff02191690831515021790555050506040820151816002015f820151815f0155602082015181600101556040820151816002015f6101000a81548160ff021916908360ff160217905550505050506020820151816005015f820151815f015f6101000a81548160ff0219169083151502179055506020820151815f0160016101000a81548160ff0219169083151502179055506040820151815f0160026101000a81548160ff0219169083151502179055506060820151815f0160036101000a81548160ff02191690831515021790555050506040820151816006015f820151815f0155602082015181600101556040820151816002015f6101000a81548160ff021916908360ff1602179055505050505060208201518160090155604082015181600a0155606082015181600b0155608082015181600c015560a082015181600d01559050505b50505050505050565b5f602052805f5260405f205f915054906101000a900460ff1681565b6001602052805f5260405f205f915054906101000a900460ff1681565b6006602052815f5260405f20818051602081018201805184825260208301602085012081835280955050505050505f9150915050805f016040518060600160405290815f82016040518060600160405290815f8201604051806101000160405290815f82015f9054906101000a900460ff161515151581526020015f820160019054906101000a900460ff161515151581526020015f820160029054906101000a900460ff161515151581526020015f820160039054906101000a900460ff161515151581526020015f820160049054906101000a900460ff161515151581526020015f820160059054906101000a900460ff161515151581526020015f820160069054906101000a900460ff161515151581526020015f820160079054906101000a900460ff161515151581525050815260200160018201604051806101000160405290815f82015f9054906101000a900460ff161515151581526020015f820160019054906101000a900460ff161515151581526020015f820160029054906101000a900460ff161515151581526020015f820160039054906101000a900460ff161515151581526020015f820160049054906101000a900460ff161515151581526020015f820160059054906101000a900460ff161515151581526020015f820160069054906101000a900460ff161515151581526020015f820160079054906101000a900460ff1615151515815250508152602001600282016040518060600160405290815f820154815260200160018201548152602001600282015f9054906101000a900460ff1660ff1660ff1681525050815250508152602001600582016040518060800160405290815f82015f9054906101000a900460ff161515151581526020015f820160019054906101000a900460ff161515151581526020015f820160029054906101000a900460ff161515151581526020015f820160039054906101000a900460ff1615151515815250508152602001600682016040518060600160405290815f820154815260200160018201548152602001600282015f9054906101000a900460ff1660ff1660ff1681525050815250509080600901549080600a01549080600b01549080600c01549080600d0154905086565b5f806127da858461284d565b90505f73ffffffffffffffffffffffffffffffffffffffff168173ffffffffffffffffffffffffffffffffffffffff161415801561284357508373ffffffffffffffffffffffffffffffffffffffff168173ffffffffffffffffffffffffffffffffffffffff16145b9150509392505050565b5f8082604051602001612860919061346d565b6040516020818303038152906040528051906020012090505f6001828660400151875f015188602001516040515f81526020016040526040516128a694939291906138cf565b6020604051602081039080840390855afa1580156128c6573d5f803e3d5ffd5b505050602060405103519050809250505092915050565b60405180608001604052805f151581526020015f151581526020015f151581526020015f151581525090565b5f604051905090565b5f80fd5b5f80fd5b5f80fd5b5f80fd5b5f601f19601f8301169050919050565b7f4e487b71000000000000000000000000000000000000000000000000000000005f52604160045260245ffd5b61296882612922565b810181811067ffffffffffffffff8211171561298757612986612932565b5b80604052505050565b5f612999612909565b90506129a5828261295f565b919050565b5f67ffffffffffffffff8211156129c4576129c3612932565b5b6129cd82612922565b9050602081019050919050565b828183375f83830152505050565b5f6129fa6129f5846129aa565b612990565b905082815260208101848484011115612a1657612a1561291e565b5b612a218482856129da565b509392505050565b5f82601f830112612a3d57612a3c61291a565b5b8135612a4d8482602086016129e8565b91505092915050565b5f60208284031215612a6b57612a6a612912565b5b5f82013567ffffffffffffffff811115612a8857612a87612916565b5b612a9484828501612a29565b91505092915050565b5f8115159050919050565b612ab181612a9d565b82525050565b61010082015f820151612acc5f850182612aa8565b506020820151612adf6020850182612aa8565b506040820151612af26040850182612aa8565b506060820151612b056060850182612aa8565b506080820151612b186080850182612aa8565b5060a0820151612b2b60a0850182612aa8565b5060c0820151612b3e60c0850182612aa8565b5060e0820151612b5160e0850182612aa8565b50505050565b61010082015f820151612b6c5f850182612aa8565b506020820151612b7f6020850182612aa8565b506040820151612b926040850182612aa8565b506060820151612ba56060850182612aa8565b506080820151612bb86080850182612aa8565b5060a0820151612bcb60a0850182612aa8565b5060c0820151612bde60c0850182612aa8565b5060e0820151612bf160e0850182612aa8565b50505050565b5f819050919050565b612c0981612bf7565b82525050565b5f60ff82169050919050565b612c2481612c0f565b82525050565b606082015f820151612c3e5f850182612c00565b506020820151612c516020850182612c00565b506040820151612c646040850182612c1b565b50505050565b61026082015f820151612c7f5f850182612ab7565b506020820151612c93610100850182612b57565b506040820151612ca7610200850182612c2a565b50505050565b608082015f820151612cc15f850182612aa8565b506020820151612cd46020850182612aa8565b506040820151612ce76040850182612aa8565b506060820151612cfa6060850182612aa8565b50505050565b61034082015f820151612d155f850182612c6a565b506020820151612d29610260850182612cad565b506040820151612d3d6102e0850182612c2a565b50505050565b5f819050919050565b612d5581612d43565b82525050565b5f6103e082019050612d6f5f830189612d00565b612d7d610340830188612d4c565b612d8b610360830187612d4c565b612d99610380830186612d4c565b612da76103a0830185612d4c565b612db56103c0830184612d4c565b979650505050505050565b5f602082019050612dd35f830184612d4c565b92915050565b5f73ffffffffffffffffffffffffffffffffffffffff82169050919050565b5f612e0282612dd9565b9050919050565b612e1281612df8565b8114612e1c575f80fd5b50565b5f81359050612e2d81612e09565b92915050565b5f8060408385031215612e4957612e48612912565b5b5f612e5685828601612e1f565b925050602083013567ffffffffffffffff811115612e7757612e76612916565b5b612e8385828601612a29565b9150509250929050565b61026082015f820151612ea25f850182612ab7565b506020820151612eb6610100850182612b57565b506040820151612eca610200850182612c2a565b50505050565b608082015f820151612ee45f850182612aa8565b506020820151612ef76020850182612aa8565b506040820151612f0a6040850182612aa8565b506060820151612f1d6060850182612aa8565b50505050565b606082015f820151612f375f850182612c00565b506020820151612f4a6020850182612c00565b506040820151612f5d6040850182612c1b565b50505050565b5f61034082019050612f775f830186612e8d565b612f85610260830185612ed0565b612f936102e0830184612f23565b949350505050565b5f80fd5b612fa881612bf7565b8114612fb2575f80fd5b50565b5f81359050612fc381612f9f565b92915050565b612fd281612c0f565b8114612fdc575f80fd5b50565b5f81359050612fed81612fc9565b92915050565b5f6060828403121561300857613007612f9b565b5b6130126060612990565b90505f61302184828501612fb5565b5f83015250602061303484828501612fb5565b602083015250604061304884828501612fdf565b60408301525092915050565b5f805f60a0848603121561306b5761306a612912565b5b5f61307886828701612e1f565b935050602084013567ffffffffffffffff81111561309957613098612916565b5b6130a586828701612a29565b92505060406130b686828701612ff3565b9150509250925092565b5f805f606084860312156130d7576130d6612912565b5b5f6130e486828701612e1f565b935050602084013567ffffffffffffffff81111561310557613104612916565b5b61311186828701612a29565b925050604061312286828701612e1f565b9150509250925092565b61010082015f8201516131415f850182612aa8565b5060208201516131546020850182612aa8565b5060408201516131676040850182612aa8565b50606082015161317a6060850182612aa8565b50608082015161318d6080850182612aa8565b5060a08201516131a060a0850182612aa8565b5060c08201516131b360c0850182612aa8565b5060e08201516131c660e0850182612aa8565b50505050565b61010082015f8201516131e15f850182612aa8565b5060208201516131f46020850182612aa8565b5060408201516132076040850182612aa8565b50606082015161321a6060850182612aa8565b50608082015161322d6080850182612aa8565b5060a082015161324060a0850182612aa8565b5060c082015161325360c0850182612aa8565b5060e082015161326660e0850182612aa8565b50505050565b5f610260820190506132805f83018661312c565b61328e6101008301856131cc565b61329c610200830184612f23565b949350505050565b5f805f60a084860312156132bb576132ba612912565b5b5f84013567ffffffffffffffff8111156132d8576132d7612916565b5b6132e486828701612a29565b93505060206132f586828701612e1f565b925050604061330686828701612ff3565b9150509250925092565b5f6020828403121561332557613324612912565b5b5f61333284828501612e1f565b91505092915050565b61334481612a9d565b82525050565b5f60208201905061335d5f83018461333b565b92915050565b5f82825260208201905092915050565b7f5769746e6573732063616e6e6f74207369676e207468656972206f776e2072655f8201527f7175657374000000000000000000000000000000000000000000000000000000602082015250565b5f6133cd602583613363565b91506133d882613373565b604082019050919050565b5f6020820190508181035f8301526133fa816133c1565b9050919050565b5f81519050919050565b5f81905092915050565b5f5b83811015613432578082015181840152602081019050613417565b5f8484015250505050565b5f61344782613401565b613451818561340b565b9350613461818560208601613415565b80840191505092915050565b5f613478828461343d565b915081905092915050565b7f546865207769746e6573732072656a65637465642074686520636c61696d20745f8201527f686973206964656e746974792062656c6f6e677320746f20796f752e00000000602082015250565b5f6134dd603c83613363565b91506134e882613483565b604082019050919050565b5f6020820190508181035f83015261350a816134d1565b9050919050565b7f546865207769746e65737320616c7265616479206861732074686973207265715f8201527f756573742c2068617665207468656d207369676e20697420746f20636f6e746960208201527f6e75652e00000000000000000000000000000000000000000000000000000000604082015250565b5f613591604483613363565b915061359c82613511565b606082019050919050565b5f6020820190508181035f8301526135be81613585565b9050919050565b7f496e76616c6964207369676e61747572652e20796f7520646964206e6f7420735f8201527f69676e20737472696e67205f69644e616d652077697468205369676e6174757260208201527f6528762c722c7329205f7369676e617475726500000000000000000000000000604082015250565b5f613645605383613363565b9150613650826135c5565b606082019050919050565b5f6020820190508181035f83015261367281613639565b9050919050565b5f6102608201905061368d5f830184612e8d565b92915050565b7f5468652072656769737472616e74206d757374207265717565737420796f75205f8201527f7369676e2074686520636c61696d6564204944206265666f726520796f75206360208201527f616e207369676e2069742e000000000000000000000000000000000000000000604082015250565b5f613713604b83613363565b915061371e82613693565b606082019050919050565b5f6020820190508181035f83015261374081613707565b9050919050565b7f596f75206861766520616c7265616479207369676e656420746869732049442e5f82015250565b5f61377b602083613363565b915061378682613747565b602082019050919050565b5f6020820190508181035f8301526137a88161376f565b9050919050565b7f5369676e61747572652c2072656769737472616e74207369676e6174757265205f8201527f696e76616c69642e000000000000000000000000000000000000000000000000602082015250565b5f613809602883613363565b9150613814826137af565b604082019050919050565b5f6020820190508181035f830152613836816137fd565b9050919050565b7f4e487b71000000000000000000000000000000000000000000000000000000005f52601160045260245ffd5b5f61387482612d43565b91507fffffffffffffffffffffffffffffffffffffffffffffffffffffffffffffffff82036138a6576138a561383d565b5b600182019050919050565b6138ba81612bf7565b82525050565b6138c981612c0f565b82525050565b5f6080820190506138e25f8301876138b1565b6138ef60208301866138c0565b6138fc60408301856138b1565b61390960608301846138b1565b9594505050505056fea26469706673582212207ee80528e38d228efb50e5d3df0eb4b87a541a665fba7b727714d26e3a180c2964736f6c63430008140033",
  "immutableReferences": {},
  "source": "// SPDX-License-Identifier: GPL-3.0\r\n\r\npragma solidity >=0.4.22 <0.9.0;\r\n\r\ncontract IdentityDirectory {\r\n\r\n    constructor() {\r\n        // Initialize the authorized registrar addresses\r\n        isFounder[0x7b9a421575f72D17331CA7433aeA46eC5d5B2739] = true; //@mancinotech\r\n        isFounder[0x80484108D571f4Ee96521710F5D027E9d2F59AdF] = true; //@furt_tech\r\n        isFounder[0xE7D3039dFDa68Ffa9Bc56e731CF9e8f85904703d] = true; //@theafrocoder\r\n        isFounder[0xe0B02A2652Caa79041f2798Fa615ec39bfBbBfA8] = true; //@devilking6105\r\n\r\n        isRegistrar[0x7b9a421575f72D17331CA7433aeA46eC5d5B2739] = true; //@mancinotech\r\n        isRegistrar[0x80484108D571f4Ee96521710F5D027E9d2F59AdF] = true; //@furt_tech\r\n        isRegistrar[0xE7D3039dFDa68Ffa9Bc56e731CF9e8f85904703d] = true; //@theafrocoder\r\n        isRegistrar[0xe0B02A2652Caa79041f2798Fa615ec39bfBbBfA8] = true; //@devilking6105\r\n\r\n        registrarCount = 4;\r\n    }\r\n\r\n    // User Types: Project Founders(super admins), Registrars(admin group), Witnesses, Registrant\r\n\r\n    // Registrar list for public listing rights\r\n    mapping(address => bool) public isFounder;\r\n    mapping(address => bool) public isRegistrar;\r\n    uint256 public registrarCount;\r\n\r\n    modifier onlyFounder() {\r\n        require(isFounder[msg.sender], \"Only Project Founders can perform this operation.\");\r\n        _;\r\n    }\r\n\r\n    modifier onlyRegistrar() {\r\n        require(isRegistrar[msg.sender], \"Only authorized registrars can perform this operation.\");\r\n        _;\r\n    }\r\n\r\n    struct IdType {\r\n        bool dns; // domain names\r\n        bool email; // email addresses\r\n        bool web1; // any other web1 address\r\n        bool social; // public profiles, can include any service offering login APIs\r\n        bool service; // additional identity service including KYC\r\n        bool web2; // any other form of web2 identity\r\n        bool web3; // web3 addresses that don't follow a 160 bit (0xabc123) format ie xrp.rU6K7V3Po4snVhBBaU29sesqs2qTQJWDw1\r\n        bool hashed; // a hashed id for an extra layer of privacy\r\n    }\r\n\r\n    // encoding/decoding functions for representing Type as a uint8 value\r\n    function encodeIdType(IdType memory idType) internal pure returns (uint8) {\r\n        uint8 encoded;\r\n        if (idType.dns) encoded |= 0x01;\r\n        if (idType.email) encoded |= 0x02;\r\n        if (idType.web1) encoded |= 0x04;\r\n        if (idType.social) encoded |= 0x08;\r\n        if (idType.service) encoded |= 0x10;\r\n        if (idType.web2) encoded |= 0x20;\r\n        if (idType.web3) encoded |= 0x40;\r\n        if (idType.hashed) encoded |= 0x80;\r\n        return encoded;\r\n    }\r\n\r\n    function decodeIdType(uint8 encoded) internal pure returns (IdType memory) {\r\n        return IdType(\r\n            (encoded & 0x01) != 0,\r\n            (encoded & 0x02) != 0,\r\n            (encoded & 0x04) != 0,\r\n            (encoded & 0x08) != 0,\r\n            (encoded & 0x10) != 0,\r\n            (encoded & 0x20) != 0,\r\n            (encoded & 0x40) != 0,\r\n            (encoded & 0x80) != 0\r\n        );\r\n    }\r\n\r\n    struct IdStatus {\r\n        bool claimed; // once a request is made this bit will go true and will inicate someone has claimed this record\r\n        bool signed; // if approved by witness will be true\r\n        bool validated; // if approved by registrar will be true\r\n        bool rejected; // if registrar or witness rejects the request this bit will be true\r\n        bool listed; // if the ID is public or if the user pushes their ID public this will be true\r\n        bool frozen; // ID can be frozen by any registrar who offers a conflicting record.\r\n        bool reserved; // web3 addresses that don't follow a 160 bit (0xabc123) format ie xrp.rU6K7V3Po4snVhBBaU29sesqs2qTQJWDw1\r\n        bool futureUse; // a hashed id for an extra layer of privacy\r\n    }\r\n\r\n    function encodeIdStatus(IdStatus memory idStatus) internal pure returns (uint8) {\r\n        uint8 encoded;\r\n        if (idStatus.claimed) encoded |= 0x01;\r\n        if (idStatus.signed) encoded |= 0x02;\r\n        if (idStatus.validated) encoded |= 0x04;\r\n        if (idStatus.rejected) encoded |= 0x08;\r\n        if (idStatus.listed) encoded |= 0x10;\r\n        if (idStatus.frozen) encoded |= 0x20;\r\n        if (idStatus.reserved) encoded |= 0x40;\r\n        if (idStatus.futureUse) encoded |= 0x80;\r\n        return encoded;\r\n    }\r\n\r\n    function decodeIdStatus(uint8 encoded) internal pure returns (IdStatus memory) {\r\n        return IdStatus(\r\n            (encoded & 0x01) != 0,\r\n            (encoded & 0x02) != 0,\r\n            (encoded & 0x04) != 0,\r\n            (encoded & 0x08) != 0,\r\n            (encoded & 0x10) != 0,\r\n            (encoded & 0x20) != 0,\r\n            (encoded & 0x40) != 0,\r\n            (encoded & 0x80) != 0\r\n        );\r\n    }\r\n\r\n    struct Signature {\r\n        bytes32 r;\r\n        bytes32 s;\r\n        uint8 v;\r\n    }\r\n    function signatureAddress(\r\n        Signature memory _signature,\r\n        string memory _message\r\n    ) internal pure returns (address) {\r\n        bytes32 messageHash = keccak256(abi.encodePacked(_message));\r\n        address recoveredAddress = ecrecover(\r\n            messageHash,\r\n            _signature.v,\r\n            _signature.r,\r\n            _signature.s\r\n        );\r\n        return recoveredAddress;\r\n    }\r\n\r\n    function signatureMatches(\r\n        Signature memory _signature,\r\n        address _signer,\r\n        string memory _message\r\n    ) internal pure returns (bool) {\r\n        address recoveredAddress = signatureAddress(_signature, _message);\r\n        return (recoveredAddress != address(0) && recoveredAddress == _signer);\r\n    }\r\n    function parseSignature(string memory signature) internal pure returns (Signature memory) {\r\n        require(bytes(signature).length == 132, \"Invalid signature length\");\r\n\r\n        bytes32 r = bytesToBytes32(bytes(signature), 0);\r\n        bytes32 s = bytesToBytes32(bytes(signature), 32);\r\n        uint8 v = uint8(bytes(signature)[64]);\r\n\r\n        return Signature(r, s, v);\r\n    }\r\n\r\n    function bytesToBytes32(bytes memory b, uint256 offset) internal pure returns (bytes32 result) {\r\n        require(b.length >= offset + 32, \"Invalid bytes length\");\r\n\r\n        assembly {\r\n            result := mload(add(b, add(32, offset)))\r\n        }\r\n    }\r\n\r\n    struct SigType {\r\n        bool witness;\r\n        bool registrar;  \r\n        bool authority;\r\n        bool kyc;\r\n    }\r\n\r\n    struct ClaimedId {\r\n        IdType idType;\r\n        IdStatus idStatus;\r\n        Signature registrant;\r\n    }\r\n    mapping(address => mapping(string => mapping (address => ClaimedId))) public claimedRecord; // Claimed ID record can be found at witness => idName => registrant  \r\n\r\n    struct IdReceipt {\r\n        ClaimedId claimedId;\r\n        SigType sigType;\r\n        Signature signer;\r\n    }\r\n    mapping(address => mapping(string => IdReceipt)) public signerReceipt; // Signer could be a witness or registrar record exists at signer => idName\r\n    mapping(address => mapping(string => IdReceipt[])) idSignatures; // A list of all IdReceipts pushed to a registrant's identity record found at registrant => idName []\r\n\r\n    struct IdRecord {\r\n        IdReceipt signedId;\r\n        uint totalSigCount;\r\n        uint witnessSigCount;\r\n        uint registrarSigCount;\r\n        uint authoritySigCount;\r\n        uint kycSigCount;\r\n    }\r\n    mapping(address => mapping(string => IdRecord)) public signedRecord; // The base record on which to collect additional signatures record exists at registrant => idName\r\n    mapping(string => IdRecord) public i; // the public record\r\n\r\n    event ClaimedIdAlert(\r\n        string indexed signedId,\r\n        ClaimedId request\r\n    );\r\n    function claimIdentity(\r\n        address _witness,\r\n        string memory _idName,\r\n        Signature memory _signature\r\n    ) public {\r\n        require(\r\n            msg.sender != _witness,\r\n            \"Witness cannot sign their own request\"\r\n        );\r\n        require(\r\n            !claimedRecord[_witness][_idName][msg.sender].idStatus.rejected,\r\n            \"The witness rejected the claim this identity belongs to you.\"\r\n        );\r\n        require(\r\n            !claimedRecord[_witness][_idName][msg.sender].idStatus.claimed,\r\n            \"The witness already has this request, have them sign it to continue.\"\r\n        );\r\n\r\n        require(\r\n            signatureMatches(_signature, msg.sender, _idName),\r\n            \"Invalid signature. you did not sign string _idName with Signature(v,r,s) _signature\"\r\n        );\r\n\r\n        // Initialize request\r\n        // ideally create a function which takes _idName and returns encoded IdType based on string rules, if invalid 0. require type!0 \r\n        IdType memory claimType = IdType(true,false,false,false,false,false,false,false); // should be user defined/auto detected\r\n        IdStatus memory claimStatus = IdStatus(true,false,false,false,true,false,false,false); // listed should be defined by user for private records\r\n        ClaimedId memory claimRecord = ClaimedId(claimType, claimStatus, _signature);\r\n        \r\n        // Store request\r\n        claimedRecord[_witness][_idName][msg.sender] = claimRecord; // storing the claim with the witness to sign or reject\r\n        \r\n        // emit alert\r\n        emit ClaimedIdAlert(_idName, claimRecord);\r\n    }\r\n\r\n    function signIdentity(\r\n        string memory _idName,\r\n        address _registrant,\r\n        Signature memory _signature\r\n    ) public {\r\n\r\n        ClaimedId memory request = claimedRecord[msg.sender][_idName][_registrant];\r\n        require(\r\n            request.idStatus.claimed,\r\n            \"The registrant must request you sign the claimed ID before you can sign it.\"\r\n        );\r\n        require(\r\n            !request.idStatus.signed,\r\n            \"You have already signed this ID.\"\r\n        );\r\n        // signature checks\r\n        require(\r\n            signatureMatches(request.registrant, _registrant, _idName),\r\n            \"Signature, registrant signature invalid.\"\r\n        );\r\n        require(\r\n            signatureMatches(_signature, msg.sender, _idName),\r\n            \"Invalid signature. you did not sign string _idName with Signature(v,r,s) _signature\"\r\n        );\r\n\r\n        IdRecord memory record = signedRecord[_registrant][_idName];\r\n        SigType memory sigType;\r\n\r\n        // define signature type and incriment counters\r\n        if (isRegistrar[msg.sender]) {\r\n            record.registrarSigCount ++;\r\n            sigType = SigType(false, true, false, false);\r\n        } else {\r\n            record.witnessSigCount ++;\r\n            sigType = SigType(true, false, false, false);\r\n        }\r\n\r\n        record.totalSigCount ++;\r\n\r\n        // Sign the receipt\r\n        IdReceipt memory receipt = IdReceipt(request, sigType, _signature);\r\n        \r\n        // add claim request to signedRecord (if it doesn't already exist)\r\n        if (!record.signedId.claimedId.idStatus.claimed) {\r\n            receipt.claimedId = request;\r\n        }\r\n\r\n        // Store receipt with signer and registrant\r\n        signerReceipt[msg.sender][_idName] = receipt;\r\n        idSignatures[_registrant][_idName].push(receipt);\r\n\r\n        if(record.signedId.claimedId.idStatus.listed && isRegistrar[msg.sender]) {\r\n            i[_idName] = record;\r\n        }\r\n    }\r\n}",
  "sourcePath": "D:\\TW3\\RFC\\IDS\\IdentityDirectoryService\\contracts\\ids.sol",
  "compiler": {
    "name": "solc",
    "version": "0.8.20+commit.a1b79de6.Emscripten.clang"
  },
  "schemaVersion": "3.4.14",
  "updatedAt": "2023-07-10T04:34:00.185Z",
  "devdoc": {
    "kind": "dev",
    "methods": {},
    "version": 1
  },
  "userdoc": {
    "kind": "user",
    "methods": {},
    "version": 1
  }
}