{
  "contractName": "IdentityDirectory",
  "abi": [
    {
      "inputs": [],
      "stateMutability": "nonpayable",
      "type": "constructor"
    },
    {
      "anonymous": false,
      "inputs": [
        {
          "indexed": true,
          "internalType": "string",
          "name": "signedId",
          "type": "string"
        },
        {
          "components": [
            {
              "components": [
                {
                  "internalType": "bool",
                  "name": "dns",
                  "type": "bool"
                },
                {
                  "internalType": "bool",
                  "name": "email",
                  "type": "bool"
                },
                {
                  "internalType": "bool",
                  "name": "web1",
                  "type": "bool"
                },
                {
                  "internalType": "bool",
                  "name": "social",
                  "type": "bool"
                },
                {
                  "internalType": "bool",
                  "name": "service",
                  "type": "bool"
                },
                {
                  "internalType": "bool",
                  "name": "web2",
                  "type": "bool"
                },
                {
                  "internalType": "bool",
                  "name": "web3",
                  "type": "bool"
                },
                {
                  "internalType": "bool",
                  "name": "hashed",
                  "type": "bool"
                }
              ],
              "internalType": "struct IdentityDirectory.IdType",
              "name": "idType",
              "type": "tuple"
            },
            {
              "components": [
                {
                  "internalType": "bool",
                  "name": "claimed",
                  "type": "bool"
                },
                {
                  "internalType": "bool",
                  "name": "signed",
                  "type": "bool"
                },
                {
                  "internalType": "bool",
                  "name": "validated",
                  "type": "bool"
                },
                {
                  "internalType": "bool",
                  "name": "rejected",
                  "type": "bool"
                },
                {
                  "internalType": "bool",
                  "name": "listed",
                  "type": "bool"
                },
                {
                  "internalType": "bool",
                  "name": "frozen",
                  "type": "bool"
                },
                {
                  "internalType": "bool",
                  "name": "reserved",
                  "type": "bool"
                },
                {
                  "internalType": "bool",
                  "name": "futureUse",
                  "type": "bool"
                }
              ],
              "internalType": "struct IdentityDirectory.IdStatus",
              "name": "idStatus",
              "type": "tuple"
            },
            {
              "components": [
                {
                  "internalType": "bytes32",
                  "name": "r",
                  "type": "bytes32"
                },
                {
                  "internalType": "bytes32",
                  "name": "s",
                  "type": "bytes32"
                },
                {
                  "internalType": "uint8",
                  "name": "v",
                  "type": "uint8"
                }
              ],
              "internalType": "struct IdentityDirectory.Signature",
              "name": "registrant",
              "type": "tuple"
            }
          ],
          "indexed": false,
          "internalType": "struct IdentityDirectory.ClaimedId",
          "name": "request",
          "type": "tuple"
        }
      ],
      "name": "ClaimedIdAlert",
      "type": "event"
    },
    {
      "inputs": [
        {
          "internalType": "address",
          "name": "",
          "type": "address"
        },
        {
          "internalType": "string",
          "name": "",
          "type": "string"
        },
        {
          "internalType": "address",
          "name": "",
          "type": "address"
        }
      ],
      "name": "claimedRecord",
      "outputs": [
        {
          "components": [
            {
              "internalType": "bool",
              "name": "dns",
              "type": "bool"
            },
            {
              "internalType": "bool",
              "name": "email",
              "type": "bool"
            },
            {
              "internalType": "bool",
              "name": "web1",
              "type": "bool"
            },
            {
              "internalType": "bool",
              "name": "social",
              "type": "bool"
            },
            {
              "internalType": "bool",
              "name": "service",
              "type": "bool"
            },
            {
              "internalType": "bool",
              "name": "web2",
              "type": "bool"
            },
            {
              "internalType": "bool",
              "name": "web3",
              "type": "bool"
            },
            {
              "internalType": "bool",
              "name": "hashed",
              "type": "bool"
            }
          ],
          "internalType": "struct IdentityDirectory.IdType",
          "name": "idType",
          "type": "tuple"
        },
        {
          "components": [
            {
              "internalType": "bool",
              "name": "claimed",
              "type": "bool"
            },
            {
              "internalType": "bool",
              "name": "signed",
              "type": "bool"
            },
            {
              "internalType": "bool",
              "name": "validated",
              "type": "bool"
            },
            {
              "internalType": "bool",
              "name": "rejected",
              "type": "bool"
            },
            {
              "internalType": "bool",
              "name": "listed",
              "type": "bool"
            },
            {
              "internalType": "bool",
              "name": "frozen",
              "type": "bool"
            },
            {
              "internalType": "bool",
              "name": "reserved",
              "type": "bool"
            },
            {
              "internalType": "bool",
              "name": "futureUse",
              "type": "bool"
            }
          ],
          "internalType": "struct IdentityDirectory.IdStatus",
          "name": "idStatus",
          "type": "tuple"
        },
        {
          "components": [
            {
              "internalType": "bytes32",
              "name": "r",
              "type": "bytes32"
            },
            {
              "internalType": "bytes32",
              "name": "s",
              "type": "bytes32"
            },
            {
              "internalType": "uint8",
              "name": "v",
              "type": "uint8"
            }
          ],
          "internalType": "struct IdentityDirectory.Signature",
          "name": "registrant",
          "type": "tuple"
        }
      ],
      "stateMutability": "view",
      "type": "function",
      "constant": true
    },
    {
      "inputs": [
        {
          "internalType": "string",
          "name": "",
          "type": "string"
        }
      ],
      "name": "i",
      "outputs": [
        {
          "components": [
            {
              "components": [
                {
                  "components": [
                    {
                      "internalType": "bool",
                      "name": "dns",
                      "type": "bool"
                    },
                    {
                      "internalType": "bool",
                      "name": "email",
                      "type": "bool"
                    },
                    {
                      "internalType": "bool",
                      "name": "web1",
                      "type": "bool"
                    },
                    {
                      "internalType": "bool",
                      "name": "social",
                      "type": "bool"
                    },
                    {
                      "internalType": "bool",
                      "name": "service",
                      "type": "bool"
                    },
                    {
                      "internalType": "bool",
                      "name": "web2",
                      "type": "bool"
                    },
                    {
                      "internalType": "bool",
                      "name": "web3",
                      "type": "bool"
                    },
                    {
                      "internalType": "bool",
                      "name": "hashed",
                      "type": "bool"
                    }
                  ],
                  "internalType": "struct IdentityDirectory.IdType",
                  "name": "idType",
                  "type": "tuple"
                },
                {
                  "components": [
                    {
                      "internalType": "bool",
                      "name": "claimed",
                      "type": "bool"
                    },
                    {
                      "internalType": "bool",
                      "name": "signed",
                      "type": "bool"
                    },
                    {
                      "internalType": "bool",
                      "name": "validated",
                      "type": "bool"
                    },
                    {
                      "internalType": "bool",
                      "name": "rejected",
                      "type": "bool"
                    },
                    {
                      "internalType": "bool",
                      "name": "listed",
                      "type": "bool"
                    },
                    {
                      "internalType": "bool",
                      "name": "frozen",
                      "type": "bool"
                    },
                    {
                      "internalType": "bool",
                      "name": "reserved",
                      "type": "bool"
                    },
                    {
                      "internalType": "bool",
                      "name": "futureUse",
                      "type": "bool"
                    }
                  ],
                  "internalType": "struct IdentityDirectory.IdStatus",
                  "name": "idStatus",
                  "type": "tuple"
                },
                {
                  "components": [
                    {
                      "internalType": "bytes32",
                      "name": "r",
                      "type": "bytes32"
                    },
                    {
                      "internalType": "bytes32",
                      "name": "s",
                      "type": "bytes32"
                    },
                    {
                      "internalType": "uint8",
                      "name": "v",
                      "type": "uint8"
                    }
                  ],
                  "internalType": "struct IdentityDirectory.Signature",
                  "name": "registrant",
                  "type": "tuple"
                }
              ],
              "internalType": "struct IdentityDirectory.ClaimedId",
              "name": "claimedId",
              "type": "tuple"
            },
            {
              "components": [
                {
                  "internalType": "bool",
                  "name": "witness",
                  "type": "bool"
                },
                {
                  "internalType": "bool",
                  "name": "registrar",
                  "type": "bool"
                },
                {
                  "internalType": "bool",
                  "name": "authority",
                  "type": "bool"
                },
                {
                  "internalType": "bool",
                  "name": "kyc",
                  "type": "bool"
                }
              ],
              "internalType": "struct IdentityDirectory.SigType",
              "name": "sigType",
              "type": "tuple"
            },
            {
              "components": [
                {
                  "internalType": "bytes32",
                  "name": "r",
                  "type": "bytes32"
                },
                {
                  "internalType": "bytes32",
                  "name": "s",
                  "type": "bytes32"
                },
                {
                  "internalType": "uint8",
                  "name": "v",
                  "type": "uint8"
                }
              ],
              "internalType": "struct IdentityDirectory.Signature",
              "name": "signer",
              "type": "tuple"
            }
          ],
          "internalType": "struct IdentityDirectory.IdReceipt",
          "name": "signedId",
          "type": "tuple"
        },
        {
          "internalType": "uint256",
          "name": "totalSigCount",
          "type": "uint256"
        },
        {
          "internalType": "uint256",
          "name": "witnessSigCount",
          "type": "uint256"
        },
        {
          "internalType": "uint256",
          "name": "registrarSigCount",
          "type": "uint256"
        },
        {
          "internalType": "uint256",
          "name": "authoritySigCount",
          "type": "uint256"
        },
        {
          "internalType": "uint256",
          "name": "kycSigCount",
          "type": "uint256"
        }
      ],
      "stateMutability": "view",
      "type": "function",
      "constant": true
    },
    {
      "inputs": [
        {
          "internalType": "address",
          "name": "",
          "type": "address"
        }
      ],
      "name": "isFounder",
      "outputs": [
        {
          "internalType": "bool",
          "name": "",
          "type": "bool"
        }
      ],
      "stateMutability": "view",
      "type": "function",
      "constant": true
    },
    {
      "inputs": [
        {
          "internalType": "address",
          "name": "",
          "type": "address"
        }
      ],
      "name": "isRegistrar",
      "outputs": [
        {
          "internalType": "bool",
          "name": "",
          "type": "bool"
        }
      ],
      "stateMutability": "view",
      "type": "function",
      "constant": true
    },
    {
      "inputs": [],
      "name": "registrarCount",
      "outputs": [
        {
          "internalType": "uint256",
          "name": "",
          "type": "uint256"
        }
      ],
      "stateMutability": "view",
      "type": "function",
      "constant": true
    },
    {
      "inputs": [
        {
          "internalType": "address",
          "name": "",
          "type": "address"
        },
        {
          "internalType": "string",
          "name": "",
          "type": "string"
        }
      ],
      "name": "signedRecord",
      "outputs": [
        {
          "components": [
            {
              "components": [
                {
                  "components": [
                    {
                      "internalType": "bool",
                      "name": "dns",
                      "type": "bool"
                    },
                    {
                      "internalType": "bool",
                      "name": "email",
                      "type": "bool"
                    },
                    {
                      "internalType": "bool",
                      "name": "web1",
                      "type": "bool"
                    },
                    {
                      "internalType": "bool",
                      "name": "social",
                      "type": "bool"
                    },
                    {
                      "internalType": "bool",
                      "name": "service",
                      "type": "bool"
                    },
                    {
                      "internalType": "bool",
                      "name": "web2",
                      "type": "bool"
                    },
                    {
                      "internalType": "bool",
                      "name": "web3",
                      "type": "bool"
                    },
                    {
                      "internalType": "bool",
                      "name": "hashed",
                      "type": "bool"
                    }
                  ],
                  "internalType": "struct IdentityDirectory.IdType",
                  "name": "idType",
                  "type": "tuple"
                },
                {
                  "components": [
                    {
                      "internalType": "bool",
                      "name": "claimed",
                      "type": "bool"
                    },
                    {
                      "internalType": "bool",
                      "name": "signed",
                      "type": "bool"
                    },
                    {
                      "internalType": "bool",
                      "name": "validated",
                      "type": "bool"
                    },
                    {
                      "internalType": "bool",
                      "name": "rejected",
                      "type": "bool"
                    },
                    {
                      "internalType": "bool",
                      "name": "listed",
                      "type": "bool"
                    },
                    {
                      "internalType": "bool",
                      "name": "frozen",
                      "type": "bool"
                    },
                    {
                      "internalType": "bool",
                      "name": "reserved",
                      "type": "bool"
                    },
                    {
                      "internalType": "bool",
                      "name": "futureUse",
                      "type": "bool"
                    }
                  ],
                  "internalType": "struct IdentityDirectory.IdStatus",
                  "name": "idStatus",
                  "type": "tuple"
                },
                {
                  "components": [
                    {
                      "internalType": "bytes32",
                      "name": "r",
                      "type": "bytes32"
                    },
                    {
                      "internalType": "bytes32",
                      "name": "s",
                      "type": "bytes32"
                    },
                    {
                      "internalType": "uint8",
                      "name": "v",
                      "type": "uint8"
                    }
                  ],
                  "internalType": "struct IdentityDirectory.Signature",
                  "name": "registrant",
                  "type": "tuple"
                }
              ],
              "internalType": "struct IdentityDirectory.ClaimedId",
              "name": "claimedId",
              "type": "tuple"
            },
            {
              "components": [
                {
                  "internalType": "bool",
                  "name": "witness",
                  "type": "bool"
                },
                {
                  "internalType": "bool",
                  "name": "registrar",
                  "type": "bool"
                },
                {
                  "internalType": "bool",
                  "name": "authority",
                  "type": "bool"
                },
                {
                  "internalType": "bool",
                  "name": "kyc",
                  "type": "bool"
                }
              ],
              "internalType": "struct IdentityDirectory.SigType",
              "name": "sigType",
              "type": "tuple"
            },
            {
              "components": [
                {
                  "internalType": "bytes32",
                  "name": "r",
                  "type": "bytes32"
                },
                {
                  "internalType": "bytes32",
                  "name": "s",
                  "type": "bytes32"
                },
                {
                  "internalType": "uint8",
                  "name": "v",
                  "type": "uint8"
                }
              ],
              "internalType": "struct IdentityDirectory.Signature",
              "name": "signer",
              "type": "tuple"
            }
          ],
          "internalType": "struct IdentityDirectory.IdReceipt",
          "name": "signedId",
          "type": "tuple"
        },
        {
          "internalType": "uint256",
          "name": "totalSigCount",
          "type": "uint256"
        },
        {
          "internalType": "uint256",
          "name": "witnessSigCount",
          "type": "uint256"
        },
        {
          "internalType": "uint256",
          "name": "registrarSigCount",
          "type": "uint256"
        },
        {
          "internalType": "uint256",
          "name": "authoritySigCount",
          "type": "uint256"
        },
        {
          "internalType": "uint256",
          "name": "kycSigCount",
          "type": "uint256"
        }
      ],
      "stateMutability": "view",
      "type": "function",
      "constant": true
    },
    {
      "inputs": [
        {
          "internalType": "address",
          "name": "",
          "type": "address"
        },
        {
          "internalType": "string",
          "name": "",
          "type": "string"
        }
      ],
      "name": "signerReceipt",
      "outputs": [
        {
          "components": [
            {
              "components": [
                {
                  "internalType": "bool",
                  "name": "dns",
                  "type": "bool"
                },
                {
                  "internalType": "bool",
                  "name": "email",
                  "type": "bool"
                },
                {
                  "internalType": "bool",
                  "name": "web1",
                  "type": "bool"
                },
                {
                  "internalType": "bool",
                  "name": "social",
                  "type": "bool"
                },
                {
                  "internalType": "bool",
                  "name": "service",
                  "type": "bool"
                },
                {
                  "internalType": "bool",
                  "name": "web2",
                  "type": "bool"
                },
                {
                  "internalType": "bool",
                  "name": "web3",
                  "type": "bool"
                },
                {
                  "internalType": "bool",
                  "name": "hashed",
                  "type": "bool"
                }
              ],
              "internalType": "struct IdentityDirectory.IdType",
              "name": "idType",
              "type": "tuple"
            },
            {
              "components": [
                {
                  "internalType": "bool",
                  "name": "claimed",
                  "type": "bool"
                },
                {
                  "internalType": "bool",
                  "name": "signed",
                  "type": "bool"
                },
                {
                  "internalType": "bool",
                  "name": "validated",
                  "type": "bool"
                },
                {
                  "internalType": "bool",
                  "name": "rejected",
                  "type": "bool"
                },
                {
                  "internalType": "bool",
                  "name": "listed",
                  "type": "bool"
                },
                {
                  "internalType": "bool",
                  "name": "frozen",
                  "type": "bool"
                },
                {
                  "internalType": "bool",
                  "name": "reserved",
                  "type": "bool"
                },
                {
                  "internalType": "bool",
                  "name": "futureUse",
                  "type": "bool"
                }
              ],
              "internalType": "struct IdentityDirectory.IdStatus",
              "name": "idStatus",
              "type": "tuple"
            },
            {
              "components": [
                {
                  "internalType": "bytes32",
                  "name": "r",
                  "type": "bytes32"
                },
                {
                  "internalType": "bytes32",
                  "name": "s",
                  "type": "bytes32"
                },
                {
                  "internalType": "uint8",
                  "name": "v",
                  "type": "uint8"
                }
              ],
              "internalType": "struct IdentityDirectory.Signature",
              "name": "registrant",
              "type": "tuple"
            }
          ],
          "internalType": "struct IdentityDirectory.ClaimedId",
          "name": "claimedId",
          "type": "tuple"
        },
        {
          "components": [
            {
              "internalType": "bool",
              "name": "witness",
              "type": "bool"
            },
            {
              "internalType": "bool",
              "name": "registrar",
              "type": "bool"
            },
            {
              "internalType": "bool",
              "name": "authority",
              "type": "bool"
            },
            {
              "internalType": "bool",
              "name": "kyc",
              "type": "bool"
            }
          ],
          "internalType": "struct IdentityDirectory.SigType",
          "name": "sigType",
          "type": "tuple"
        },
        {
          "components": [
            {
              "internalType": "bytes32",
              "name": "r",
              "type": "bytes32"
            },
            {
              "internalType": "bytes32",
              "name": "s",
              "type": "bytes32"
            },
            {
              "internalType": "uint8",
              "name": "v",
              "type": "uint8"
            }
          ],
          "internalType": "struct IdentityDirectory.Signature",
          "name": "signer",
          "type": "tuple"
        }
      ],
      "stateMutability": "view",
      "type": "function",
      "constant": true
    },
    {
      "inputs": [
        {
          "internalType": "address",
          "name": "_witness",
          "type": "address"
        },
        {
          "internalType": "string",
          "name": "_idName",
          "type": "string"
        },
        {
          "components": [
            {
              "internalType": "bytes32",
              "name": "r",
              "type": "bytes32"
            },
            {
              "internalType": "bytes32",
              "name": "s",
              "type": "bytes32"
            },
            {
              "internalType": "uint8",
              "name": "v",
              "type": "uint8"
            }
          ],
          "internalType": "struct IdentityDirectory.Signature",
          "name": "_signature",
          "type": "tuple"
        }
      ],
      "name": "claimIdentity",
      "outputs": [],
      "stateMutability": "nonpayable",
      "type": "function"
    },
    {
      "inputs": [
        {
          "internalType": "string",
          "name": "_idName",
          "type": "string"
        },
        {
          "internalType": "address",
          "name": "_registrant",
          "type": "address"
        },
        {
          "components": [
            {
              "internalType": "bytes32",
              "name": "r",
              "type": "bytes32"
            },
            {
              "internalType": "bytes32",
              "name": "s",
              "type": "bytes32"
            },
            {
              "internalType": "uint8",
              "name": "v",
              "type": "uint8"
            }
          ],
          "internalType": "struct IdentityDirectory.Signature",
          "name": "_signature",
          "type": "tuple"
        }
      ],
      "name": "signIdentity",
      "outputs": [],
      "stateMutability": "nonpayable",
      "type": "function"
    }
  ],
  "bytecode": "0x608060405234801561001057600080fd5b506001600080737b9a421575f72d17331ca7433aea46ec5d5b273973ffffffffffffffffffffffffffffffffffffffff1673ffffffffffffffffffffffffffffffffffffffff16815260200190815260200160002060006101000a81548160ff02191690831515021790555060016000807380484108d571f4ee96521710f5d027e9d2f59adf73ffffffffffffffffffffffffffffffffffffffff1673ffffffffffffffffffffffffffffffffffffffff16815260200190815260200160002060006101000a81548160ff021916908315150217905550600160008073e7d3039dfda68ffa9bc56e731cf9e8f85904703d73ffffffffffffffffffffffffffffffffffffffff1673ffffffffffffffffffffffffffffffffffffffff16815260200190815260200160002060006101000a81548160ff021916908315150217905550600160008073e0b02a2652caa79041f2798fa615ec39bfbbbfa873ffffffffffffffffffffffffffffffffffffffff1673ffffffffffffffffffffffffffffffffffffffff16815260200190815260200160002060006101000a81548160ff0219169083151502179055506001806000737b9a421575f72d17331ca7433aea46ec5d5b273973ffffffffffffffffffffffffffffffffffffffff1673ffffffffffffffffffffffffffffffffffffffff16815260200190815260200160002060006101000a81548160ff02191690831515021790555060018060007380484108d571f4ee96521710f5d027e9d2f59adf73ffffffffffffffffffffffffffffffffffffffff1673ffffffffffffffffffffffffffffffffffffffff16815260200190815260200160002060006101000a81548160ff021916908315150217905550600180600073e7d3039dfda68ffa9bc56e731cf9e8f85904703d73ffffffffffffffffffffffffffffffffffffffff1673ffffffffffffffffffffffffffffffffffffffff16815260200190815260200160002060006101000a81548160ff021916908315150217905550600180600073e0b02a2652caa79041f2798fa615ec39bfbbbfa873ffffffffffffffffffffffffffffffffffffffff1673ffffffffffffffffffffffffffffffffffffffff16815260200190815260200160002060006101000a81548160ff0219169083151502179055506004600281905550613b55806103806000396000f3fe608060405234801561001057600080fd5b50600436106100935760003560e01c806354a0b6b51161006657806354a0b6b51461013957806362b4f0bb1461016b578063c7b5784114610187578063d5db72eb146101b7578063e9120f7f146101e757610093565b806302d88316146100985780631c8f8a93146100cd57806320f53f99146100eb5780632bbddde61461011d575b600080fd5b6100b260048036038101906100ad9190612d10565b61021c565b6040516100c496959493929190613589565b60405180910390f35b6100d5610570565b6040516100e2919061362a565b60405180910390f35b61010560048036038101906101009190612bd6565b610576565b6040516101149392919061354f565b60405180910390f35b61013760048036038101906101329190612ca1565b61089d565b005b610153600480360381019061014e9190612c32565b610f40565b604051610162939291906135f0565b60405180910390f35b61018560048036038101906101809190612d59565b61119b565b005b6101a1600480360381019061019c9190612ba9565b6125ae565b6040516101ae91906133f3565b60405180910390f35b6101d160048036038101906101cc9190612ba9565b6125ce565b6040516101de91906133f3565b60405180910390f35b61020160048036038101906101fc9190612bd6565b6125ee565b60405161021396959493929190613589565b60405180910390f35b600781805160208101820180518482526020830160208501208183528095505050505050600091509050806000016040518060600160405290816000820160405180606001604052908160008201604051806101000160405290816000820160009054906101000a900460ff161515151581526020016000820160019054906101000a900460ff161515151581526020016000820160029054906101000a900460ff161515151581526020016000820160039054906101000a900460ff161515151581526020016000820160049054906101000a900460ff161515151581526020016000820160059054906101000a900460ff161515151581526020016000820160069054906101000a900460ff161515151581526020016000820160079054906101000a900460ff161515151581525050815260200160018201604051806101000160405290816000820160009054906101000a900460ff161515151581526020016000820160019054906101000a900460ff161515151581526020016000820160029054906101000a900460ff161515151581526020016000820160039054906101000a900460ff161515151581526020016000820160049054906101000a900460ff161515151581526020016000820160059054906101000a900460ff161515151581526020016000820160069054906101000a900460ff161515151581526020016000820160079054906101000a900460ff16151515158152505081526020016002820160405180606001604052908160008201548152602001600182015481526020016002820160009054906101000a900460ff1660ff1660ff1681525050815250508152602001600582016040518060800160405290816000820160009054906101000a900460ff161515151581526020016000820160019054906101000a900460ff161515151581526020016000820160029054906101000a900460ff161515151581526020016000820160039054906101000a900460ff16151515158152505081526020016006820160405180606001604052908160008201548152602001600182015481526020016002820160009054906101000a900460ff1660ff1660ff1681525050815250509080600901549080600a01549080600b01549080600c01549080600d0154905086565b60025481565b600460205281600052604060002081805160208101820180518482526020830160208501208183528095505050505050600091509150508060000160405180606001604052908160008201604051806101000160405290816000820160009054906101000a900460ff161515151581526020016000820160019054906101000a900460ff161515151581526020016000820160029054906101000a900460ff161515151581526020016000820160039054906101000a900460ff161515151581526020016000820160049054906101000a900460ff161515151581526020016000820160059054906101000a900460ff161515151581526020016000820160069054906101000a900460ff161515151581526020016000820160079054906101000a900460ff161515151581525050815260200160018201604051806101000160405290816000820160009054906101000a900460ff161515151581526020016000820160019054906101000a900460ff161515151581526020016000820160029054906101000a900460ff161515151581526020016000820160039054906101000a900460ff161515151581526020016000820160049054906101000a900460ff161515151581526020016000820160059054906101000a900460ff161515151581526020016000820160069054906101000a900460ff161515151581526020016000820160079054906101000a900460ff16151515158152505081526020016002820160405180606001604052908160008201548152602001600182015481526020016002820160009054906101000a900460ff1660ff1660ff16815250508152505090806005016040518060800160405290816000820160009054906101000a900460ff161515151581526020016000820160019054906101000a900460ff161515151581526020016000820160029054906101000a900460ff161515151581526020016000820160039054906101000a900460ff161515151581525050908060060160405180606001604052908160008201548152602001600182015481526020016002820160009054906101000a900460ff1660ff1660ff1681525050905083565b8273ffffffffffffffffffffffffffffffffffffffff163373ffffffffffffffffffffffffffffffffffffffff16141561090c576040517f08c379a000000000000000000000000000000000000000000000000000000000815260040161090390613493565b60405180910390fd5b600360008473ffffffffffffffffffffffffffffffffffffffff1673ffffffffffffffffffffffffffffffffffffffff1681526020019081526020016000208260405161095991906133dc565b908152602001604051809103902060003373ffffffffffffffffffffffffffffffffffffffff1673ffffffffffffffffffffffffffffffffffffffff16815260200190815260200160002060010160000160039054906101000a900460ff16156109f8576040517f08c379a00000000000000000000000000000000000000000000000000000000081526004016109ef90613453565b60405180910390fd5b600360008473ffffffffffffffffffffffffffffffffffffffff1673ffffffffffffffffffffffffffffffffffffffff16815260200190815260200160002082604051610a4591906133dc565b908152602001604051809103902060003373ffffffffffffffffffffffffffffffffffffffff1673ffffffffffffffffffffffffffffffffffffffff16815260200190815260200160002060010160000160009054906101000a900460ff1615610ae4576040517f08c379a0000000000000000000000000000000000000000000000000000000008152600401610adb906134f3565b60405180910390fd5b610aef81338461294f565b610b2e576040517f08c379a0000000000000000000000000000000000000000000000000000000008152600401610b25906134b3565b60405180910390fd5b600060405180610100016040528060011515815260200160001515815260200160001515815260200160001515815260200160001515815260200160001515815260200160001515815260200160001515815250905060006040518061010001604052806001151581526020016000151581526020016000151581526020016000151581526020016001151581526020016000151581526020016000151581526020016000151581525090506000604051806060016040528084815260200183815260200185815250905080600360008873ffffffffffffffffffffffffffffffffffffffff1673ffffffffffffffffffffffffffffffffffffffff16815260200190815260200160002086604051610c4791906133dc565b908152602001604051809103902060003373ffffffffffffffffffffffffffffffffffffffff1673ffffffffffffffffffffffffffffffffffffffff16815260200190815260200160002060008201518160000160008201518160000160006101000a81548160ff02191690831515021790555060208201518160000160016101000a81548160ff02191690831515021790555060408201518160000160026101000a81548160ff02191690831515021790555060608201518160000160036101000a81548160ff02191690831515021790555060808201518160000160046101000a81548160ff02191690831515021790555060a08201518160000160056101000a81548160ff02191690831515021790555060c08201518160000160066101000a81548160ff02191690831515021790555060e08201518160000160076101000a81548160ff021916908315150217905550505060208201518160010160008201518160000160006101000a81548160ff02191690831515021790555060208201518160000160016101000a81548160ff02191690831515021790555060408201518160000160026101000a81548160ff02191690831515021790555060608201518160000160036101000a81548160ff02191690831515021790555060808201518160000160046101000a81548160ff02191690831515021790555060a08201518160000160056101000a81548160ff02191690831515021790555060c08201518160000160066101000a81548160ff02191690831515021790555060e08201518160000160076101000a81548160ff0219169083151502179055505050604082015181600201600082015181600001556020820151816001015560408201518160020160006101000a81548160ff021916908360ff160217905550505090505084604051610ef991906133dc565b60405180910390207ffc6b4a839aff98999e1126330b18b3e2c2447becc091fff9e9d23b0b262f287b82604051610f309190613533565b60405180910390a2505050505050565b600360205282600052604060002082805160208101820180518482526020830160208501208183528095505050505050602052806000526040600020600092509250505080600001604051806101000160405290816000820160009054906101000a900460ff161515151581526020016000820160019054906101000a900460ff161515151581526020016000820160029054906101000a900460ff161515151581526020016000820160039054906101000a900460ff161515151581526020016000820160049054906101000a900460ff161515151581526020016000820160059054906101000a900460ff161515151581526020016000820160069054906101000a900460ff161515151581526020016000820160079054906101000a900460ff1615151515815250509080600101604051806101000160405290816000820160009054906101000a900460ff161515151581526020016000820160019054906101000a900460ff161515151581526020016000820160029054906101000a900460ff161515151581526020016000820160039054906101000a900460ff161515151581526020016000820160049054906101000a900460ff161515151581526020016000820160059054906101000a900460ff161515151581526020016000820160069054906101000a900460ff161515151581526020016000820160079054906101000a900460ff161515151581525050908060020160405180606001604052908160008201548152602001600182015481526020016002820160009054906101000a900460ff1660ff1660ff1681525050905083565b6000600360003373ffffffffffffffffffffffffffffffffffffffff1673ffffffffffffffffffffffffffffffffffffffff168152602001908152602001600020846040516111ea91906133dc565b908152602001604051809103902060008473ffffffffffffffffffffffffffffffffffffffff1673ffffffffffffffffffffffffffffffffffffffff16815260200190815260200160002060405180606001604052908160008201604051806101000160405290816000820160009054906101000a900460ff161515151581526020016000820160019054906101000a900460ff161515151581526020016000820160029054906101000a900460ff161515151581526020016000820160039054906101000a900460ff161515151581526020016000820160049054906101000a900460ff161515151581526020016000820160059054906101000a900460ff161515151581526020016000820160069054906101000a900460ff161515151581526020016000820160079054906101000a900460ff161515151581525050815260200160018201604051806101000160405290816000820160009054906101000a900460ff161515151581526020016000820160019054906101000a900460ff161515151581526020016000820160029054906101000a900460ff161515151581526020016000820160039054906101000a900460ff161515151581526020016000820160049054906101000a900460ff161515151581526020016000820160059054906101000a900460ff161515151581526020016000820160069054906101000a900460ff161515151581526020016000820160079054906101000a900460ff16151515158152505081526020016002820160405180606001604052908160008201548152602001600182015481526020016002820160009054906101000a900460ff1660ff1660ff16815250508152505090508060200151600001516114a9576040517f08c379a00000000000000000000000000000000000000000000000000000000081526004016114a090613513565b60405180910390fd5b806020015160200151156114f2576040517f08c379a00000000000000000000000000000000000000000000000000000000081526004016114e9906134d3565b60405180910390fd5b6115018160400151848661294f565b611540576040517f08c379a000000000000000000000000000000000000000000000000000000000815260040161153790613473565b60405180910390fd5b61154b82338661294f565b61158a576040517f08c379a0000000000000000000000000000000000000000000000000000000008152600401611581906134b3565b60405180910390fd5b6000600660008573ffffffffffffffffffffffffffffffffffffffff1673ffffffffffffffffffffffffffffffffffffffff168152602001908152602001600020856040516115d991906133dc565b90815260200160405180910390206040518060c0016040529081600082016040518060600160405290816000820160405180606001604052908160008201604051806101000160405290816000820160009054906101000a900460ff161515151581526020016000820160019054906101000a900460ff161515151581526020016000820160029054906101000a900460ff161515151581526020016000820160039054906101000a900460ff161515151581526020016000820160049054906101000a900460ff161515151581526020016000820160059054906101000a900460ff161515151581526020016000820160069054906101000a900460ff161515151581526020016000820160079054906101000a900460ff161515151581525050815260200160018201604051806101000160405290816000820160009054906101000a900460ff161515151581526020016000820160019054906101000a900460ff161515151581526020016000820160029054906101000a900460ff161515151581526020016000820160039054906101000a900460ff161515151581526020016000820160049054906101000a900460ff161515151581526020016000820160059054906101000a900460ff161515151581526020016000820160069054906101000a900460ff161515151581526020016000820160079054906101000a900460ff16151515158152505081526020016002820160405180606001604052908160008201548152602001600182015481526020016002820160009054906101000a900460ff1660ff1660ff1681525050815250508152602001600582016040518060800160405290816000820160009054906101000a900460ff161515151581526020016000820160019054906101000a900460ff161515151581526020016000820160029054906101000a900460ff161515151581526020016000820160039054906101000a900460ff16151515158152505081526020016006820160405180606001604052908160008201548152602001600182015481526020016002820160009054906101000a900460ff1660ff1660ff168152505081525050815260200160098201548152602001600a8201548152602001600b8201548152602001600c8201548152602001600d82015481525050905061193a612a66565b600160003373ffffffffffffffffffffffffffffffffffffffff1673ffffffffffffffffffffffffffffffffffffffff16815260200190815260200160002060009054906101000a900460ff16156119d65781606001805180919061199e90613794565b815250506040518060800160405280600015158152602001600115158152602001600015158152602001600015158152509050611a1c565b8160400180518091906119e890613794565b8152505060405180608001604052806001151581526020016000151581526020016000151581526020016000151581525090505b816020018051809190611a2e90613794565b81525050600060405180606001604052808581526020018381526020018681525090508260000151600001516020015160000151611a70578381600001819052505b80600460003373ffffffffffffffffffffffffffffffffffffffff1673ffffffffffffffffffffffffffffffffffffffff16815260200190815260200160002088604051611abe91906133dc565b908152602001604051809103902060008201518160000160008201518160000160008201518160000160006101000a81548160ff02191690831515021790555060208201518160000160016101000a81548160ff02191690831515021790555060408201518160000160026101000a81548160ff02191690831515021790555060608201518160000160036101000a81548160ff02191690831515021790555060808201518160000160046101000a81548160ff02191690831515021790555060a08201518160000160056101000a81548160ff02191690831515021790555060c08201518160000160066101000a81548160ff02191690831515021790555060e08201518160000160076101000a81548160ff021916908315150217905550505060208201518160010160008201518160000160006101000a81548160ff02191690831515021790555060208201518160000160016101000a81548160ff02191690831515021790555060408201518160000160026101000a81548160ff02191690831515021790555060608201518160000160036101000a81548160ff02191690831515021790555060808201518160000160046101000a81548160ff02191690831515021790555060a08201518160000160056101000a81548160ff02191690831515021790555060c08201518160000160066101000a81548160ff02191690831515021790555060e08201518160000160076101000a81548160ff0219169083151502179055505050604082015181600201600082015181600001556020820151816001015560408201518160020160006101000a81548160ff021916908360ff1602179055505050505060208201518160050160008201518160000160006101000a81548160ff02191690831515021790555060208201518160000160016101000a81548160ff02191690831515021790555060408201518160000160026101000a81548160ff02191690831515021790555060608201518160000160036101000a81548160ff0219169083151502179055505050604082015181600601600082015181600001556020820151816001015560408201518160020160006101000a81548160ff021916908360ff1602179055505050905050600560008773ffffffffffffffffffffffffffffffffffffffff1673ffffffffffffffffffffffffffffffffffffffff16815260200190815260200160002087604051611e4891906133dc565b908152602001604051809103902081908060018154018082558091505060019003906000526020600020906009020160009091909190915060008201518160000160008201518160000160008201518160000160006101000a81548160ff02191690831515021790555060208201518160000160016101000a81548160ff02191690831515021790555060408201518160000160026101000a81548160ff02191690831515021790555060608201518160000160036101000a81548160ff02191690831515021790555060808201518160000160046101000a81548160ff02191690831515021790555060a08201518160000160056101000a81548160ff02191690831515021790555060c08201518160000160066101000a81548160ff02191690831515021790555060e08201518160000160076101000a81548160ff021916908315150217905550505060208201518160010160008201518160000160006101000a81548160ff02191690831515021790555060208201518160000160016101000a81548160ff02191690831515021790555060408201518160000160026101000a81548160ff02191690831515021790555060608201518160000160036101000a81548160ff02191690831515021790555060808201518160000160046101000a81548160ff02191690831515021790555060a08201518160000160056101000a81548160ff02191690831515021790555060c08201518160000160066101000a81548160ff02191690831515021790555060e08201518160000160076101000a81548160ff0219169083151502179055505050604082015181600201600082015181600001556020820151816001015560408201518160020160006101000a81548160ff021916908360ff1602179055505050505060208201518160050160008201518160000160006101000a81548160ff02191690831515021790555060208201518160000160016101000a81548160ff02191690831515021790555060408201518160000160026101000a81548160ff02191690831515021790555060608201518160000160036101000a81548160ff0219169083151502179055505050604082015181600601600082015181600001556020820151816001015560408201518160020160006101000a81548160ff021916908360ff16021790555050505050826000015160000151602001516080015180156122145750600160003373ffffffffffffffffffffffffffffffffffffffff1673ffffffffffffffffffffffffffffffffffffffff16815260200190815260200160002060009054906101000a900460ff165b156125a5578260078860405161222a91906133dc565b908152602001604051809103902060008201518160000160008201518160000160008201518160000160008201518160000160006101000a81548160ff02191690831515021790555060208201518160000160016101000a81548160ff02191690831515021790555060408201518160000160026101000a81548160ff02191690831515021790555060608201518160000160036101000a81548160ff02191690831515021790555060808201518160000160046101000a81548160ff02191690831515021790555060a08201518160000160056101000a81548160ff02191690831515021790555060c08201518160000160066101000a81548160ff02191690831515021790555060e08201518160000160076101000a81548160ff021916908315150217905550505060208201518160010160008201518160000160006101000a81548160ff02191690831515021790555060208201518160000160016101000a81548160ff02191690831515021790555060408201518160000160026101000a81548160ff02191690831515021790555060608201518160000160036101000a81548160ff02191690831515021790555060808201518160000160046101000a81548160ff02191690831515021790555060a08201518160000160056101000a81548160ff02191690831515021790555060c08201518160000160066101000a81548160ff02191690831515021790555060e08201518160000160076101000a81548160ff0219169083151502179055505050604082015181600201600082015181600001556020820151816001015560408201518160020160006101000a81548160ff021916908360ff1602179055505050505060208201518160050160008201518160000160006101000a81548160ff02191690831515021790555060208201518160000160016101000a81548160ff02191690831515021790555060408201518160000160026101000a81548160ff02191690831515021790555060608201518160000160036101000a81548160ff0219169083151502179055505050604082015181600601600082015181600001556020820151816001015560408201518160020160006101000a81548160ff021916908360ff1602179055505050505060208201518160090155604082015181600a0155606082015181600b0155608082015181600c015560a082015181600d01559050505b50505050505050565b60006020528060005260406000206000915054906101000a900460ff1681565b60016020528060005260406000206000915054906101000a900460ff1681565b60066020528160005260406000208180516020810182018051848252602083016020850120818352809550505050505060009150915050806000016040518060600160405290816000820160405180606001604052908160008201604051806101000160405290816000820160009054906101000a900460ff161515151581526020016000820160019054906101000a900460ff161515151581526020016000820160029054906101000a900460ff161515151581526020016000820160039054906101000a900460ff161515151581526020016000820160049054906101000a900460ff161515151581526020016000820160059054906101000a900460ff161515151581526020016000820160069054906101000a900460ff161515151581526020016000820160079054906101000a900460ff161515151581525050815260200160018201604051806101000160405290816000820160009054906101000a900460ff161515151581526020016000820160019054906101000a900460ff161515151581526020016000820160029054906101000a900460ff161515151581526020016000820160039054906101000a900460ff161515151581526020016000820160049054906101000a900460ff161515151581526020016000820160059054906101000a900460ff161515151581526020016000820160069054906101000a900460ff161515151581526020016000820160079054906101000a900460ff16151515158152505081526020016002820160405180606001604052908160008201548152602001600182015481526020016002820160009054906101000a900460ff1660ff1660ff1681525050815250508152602001600582016040518060800160405290816000820160009054906101000a900460ff161515151581526020016000820160019054906101000a900460ff161515151581526020016000820160029054906101000a900460ff161515151581526020016000820160039054906101000a900460ff16151515158152505081526020016006820160405180606001604052908160008201548152602001600182015481526020016002820160009054906101000a900460ff1660ff1660ff1681525050815250509080600901549080600a01549080600b01549080600c01549080600d0154905086565b60008061295c85846129d0565b9050600073ffffffffffffffffffffffffffffffffffffffff168173ffffffffffffffffffffffffffffffffffffffff16141580156129c657508373ffffffffffffffffffffffffffffffffffffffff168173ffffffffffffffffffffffffffffffffffffffff16145b9150509392505050565b600080826040516020016129e491906133dc565b604051602081830303815290604052805190602001209050600060018286604001518760000151886020015160405160008152602001604052604051612a2d949392919061340e565b6020604051602081039080840390855afa158015612a4f573d6000803e3d6000fd5b505050602060405103519050809250505092915050565b60405180608001604052806000151581526020016000151581526020016000151581526020016000151581525090565b6000612aa9612aa48461366a565b613645565b905082815260208101848484011115612ac557612ac4613845565b5b612ad0848285613721565b509392505050565b600081359050612ae781613ada565b92915050565b600081359050612afc81613af1565b92915050565b600082601f830112612b1757612b1661383b565b5b8135612b27848260208601612a96565b91505092915050565b600060608284031215612b4657612b45613840565b5b612b506060613645565b90506000612b6084828501612aed565b6000830152506020612b7484828501612aed565b6020830152506040612b8884828501612b94565b60408301525092915050565b600081359050612ba381613b08565b92915050565b600060208284031215612bbf57612bbe61384f565b5b6000612bcd84828501612ad8565b91505092915050565b60008060408385031215612bed57612bec61384f565b5b6000612bfb85828601612ad8565b925050602083013567ffffffffffffffff811115612c1c57612c1b61384a565b5b612c2885828601612b02565b9150509250929050565b600080600060608486031215612c4b57612c4a61384f565b5b6000612c5986828701612ad8565b935050602084013567ffffffffffffffff811115612c7a57612c7961384a565b5b612c8686828701612b02565b9250506040612c9786828701612ad8565b9150509250925092565b600080600060a08486031215612cba57612cb961384f565b5b6000612cc886828701612ad8565b935050602084013567ffffffffffffffff811115612ce957612ce861384a565b5b612cf586828701612b02565b9250506040612d0686828701612b30565b9150509250925092565b600060208284031215612d2657612d2561384f565b5b600082013567ffffffffffffffff811115612d4457612d4361384a565b5b612d5084828501612b02565b91505092915050565b600080600060a08486031215612d7257612d7161384f565b5b600084013567ffffffffffffffff811115612d9057612d8f61384a565b5b612d9c86828701612b02565b9350506020612dad86828701612ad8565b9250506040612dbe86828701612b30565b9150509250925092565b612dd1816136d4565b82525050565b612de0816136d4565b82525050565b612def816136e0565b82525050565b612dfe816136e0565b82525050565b6000612e0f8261369b565b612e1981856136b7565b9350612e29818560208601613730565b80840191505092915050565b6000612e42603c836136a6565b9150612e4d82613865565b604082019050919050565b6000612e656028836136a6565b9150612e70826138b4565b604082019050919050565b6000612e886025836136a6565b9150612e9382613903565b604082019050919050565b6000612eab6053836136a6565b9150612eb682613952565b606082019050919050565b6000612ece6020836136a6565b9150612ed9826139c7565b602082019050919050565b6000612ef16044836136a6565b9150612efc826139f0565b606082019050919050565b6000612f14604b836136a6565b9150612f1f82613a65565b606082019050919050565b61026082016000820151612f41600085018261313d565b506020820151612f55610100850182612ff9565b506040820151612f6961020085018261332b565b50505050565b61026082016000820151612f86600085018261313d565b506020820151612f9a610100850182612ff9565b506040820151612fae61020085018261332b565b50505050565b61034082016000820151612fcb6000850182612f2a565b506020820151612fdf610260850182613281565b506040820151612ff36102e085018261332b565b50505050565b610100820160008201516130106000850182612dc8565b5060208201516130236020850182612dc8565b5060408201516130366040850182612dc8565b5060608201516130496060850182612dc8565b50608082015161305c6080850182612dc8565b5060a082015161306f60a0850182612dc8565b5060c082015161308260c0850182612dc8565b5060e082015161309560e0850182612dc8565b50505050565b610100820160008201516130b26000850182612dc8565b5060208201516130c56020850182612dc8565b5060408201516130d86040850182612dc8565b5060608201516130eb6060850182612dc8565b5060808201516130fe6080850182612dc8565b5060a082015161311160a0850182612dc8565b5060c082015161312460c0850182612dc8565b5060e082015161313760e0850182612dc8565b50505050565b610100820160008201516131546000850182612dc8565b5060208201516131676020850182612dc8565b50604082015161317a6040850182612dc8565b50606082015161318d6060850182612dc8565b5060808201516131a06080850182612dc8565b5060a08201516131b360a0850182612dc8565b5060c08201516131c660c0850182612dc8565b5060e08201516131d960e0850182612dc8565b50505050565b610100820160008201516131f66000850182612dc8565b5060208201516132096020850182612dc8565b50604082015161321c6040850182612dc8565b50606082015161322f6060850182612dc8565b5060808201516132426080850182612dc8565b5060a082015161325560a0850182612dc8565b5060c082015161326860c0850182612dc8565b5060e082015161327b60e0850182612dc8565b50505050565b6080820160008201516132976000850182612dc8565b5060208201516132aa6020850182612dc8565b5060408201516132bd6040850182612dc8565b5060608201516132d06060850182612dc8565b50505050565b6080820160008201516132ec6000850182612dc8565b5060208201516132ff6020850182612dc8565b5060408201516133126040850182612dc8565b5060608201516133256060850182612dc8565b50505050565b6060820160008201516133416000850182612de6565b5060208201516133546020850182612de6565b50604082015161336760408501826133be565b50505050565b6060820160008201516133836000850182612de6565b5060208201516133966020850182612de6565b5060408201516133a960408501826133be565b50505050565b6133b88161370a565b82525050565b6133c781613714565b82525050565b6133d681613714565b82525050565b60006133e88284612e04565b915081905092915050565b60006020820190506134086000830184612dd7565b92915050565b60006080820190506134236000830187612df5565b61343060208301866133cd565b61343d6040830185612df5565b61344a6060830184612df5565b95945050505050565b6000602082019050818103600083015261346c81612e35565b9050919050565b6000602082019050818103600083015261348c81612e58565b9050919050565b600060208201905081810360008301526134ac81612e7b565b9050919050565b600060208201905081810360008301526134cc81612e9e565b9050919050565b600060208201905081810360008301526134ec81612ec1565b9050919050565b6000602082019050818103600083015261350c81612ee4565b9050919050565b6000602082019050818103600083015261352c81612f07565b9050919050565b6000610260820190506135496000830184612f6f565b92915050565b6000610340820190506135656000830186612f6f565b6135736102608301856132d6565b6135816102e083018461336d565b949350505050565b60006103e08201905061359f6000830189612fb4565b6135ad6103408301886133af565b6135bb6103608301876133af565b6135c96103808301866133af565b6135d76103a08301856133af565b6135e56103c08301846133af565b979650505050505050565b60006102608201905061360660008301866131df565b61361461010083018561309b565b61362261020083018461336d565b949350505050565b600060208201905061363f60008301846133af565b92915050565b600061364f613660565b905061365b8282613763565b919050565b6000604051905090565b600067ffffffffffffffff8211156136855761368461380c565b5b61368e82613854565b9050602081019050919050565b600081519050919050565b600082825260208201905092915050565b600081905092915050565b60006136cd826136ea565b9050919050565b60008115159050919050565b6000819050919050565b600073ffffffffffffffffffffffffffffffffffffffff82169050919050565b6000819050919050565b600060ff82169050919050565b82818337600083830152505050565b60005b8381101561374e578082015181840152602081019050613733565b8381111561375d576000848401525b50505050565b61376c82613854565b810181811067ffffffffffffffff8211171561378b5761378a61380c565b5b80604052505050565b600061379f8261370a565b91507fffffffffffffffffffffffffffffffffffffffffffffffffffffffffffffffff8214156137d2576137d16137dd565b5b600182019050919050565b7f4e487b7100000000000000000000000000000000000000000000000000000000600052601160045260246000fd5b7f4e487b7100000000000000000000000000000000000000000000000000000000600052604160045260246000fd5b600080fd5b600080fd5b600080fd5b600080fd5b600080fd5b6000601f19601f8301169050919050565b7f546865207769746e6573732072656a65637465642074686520636c61696d207460008201527f686973206964656e746974792062656c6f6e677320746f20796f752e00000000602082015250565b7f5369676e61747572652c2072656769737472616e74207369676e61747572652060008201527f696e76616c69642e000000000000000000000000000000000000000000000000602082015250565b7f5769746e6573732063616e6e6f74207369676e207468656972206f776e20726560008201527f7175657374000000000000000000000000000000000000000000000000000000602082015250565b7f496e76616c6964207369676e61747572652e20796f7520646964206e6f74207360008201527f69676e20737472696e67205f69644e616d652077697468205369676e6174757260208201527f6528762c722c7329205f7369676e617475726500000000000000000000000000604082015250565b7f596f75206861766520616c7265616479207369676e656420746869732049442e600082015250565b7f546865207769746e65737320616c72656164792068617320746869732072657160008201527f756573742c2068617665207468656d207369676e20697420746f20636f6e746960208201527f6e75652e00000000000000000000000000000000000000000000000000000000604082015250565b7f5468652072656769737472616e74206d757374207265717565737420796f752060008201527f7369676e2074686520636c61696d6564204944206265666f726520796f75206360208201527f616e207369676e2069742e000000000000000000000000000000000000000000604082015250565b613ae3816136c2565b8114613aee57600080fd5b50565b613afa816136e0565b8114613b0557600080fd5b50565b613b1181613714565b8114613b1c57600080fd5b5056fea264697066735822122031470674cabbe28773f22840ba05e21918385cb958560501e7eec5a3c5727a2364736f6c63430008060033",
  "immutableReferences": {},
  "source": "// SPDX-License-Identifier: GPL-3.0\r\n\r\npragma solidity >=0.4.22 <0.9.0;\r\n\r\ncontract IdentityDirectory {\r\n\r\n    constructor() {\r\n        // Initialize the authorized registrar addresses\r\n        isFounder[0x7b9a421575f72D17331CA7433aeA46eC5d5B2739] = true; //@mancinotech\r\n        isFounder[0x80484108D571f4Ee96521710F5D027E9d2F59AdF] = true; //@furt_tech\r\n        isFounder[0xE7D3039dFDa68Ffa9Bc56e731CF9e8f85904703d] = true; //@theafrocoder\r\n        isFounder[0xe0B02A2652Caa79041f2798Fa615ec39bfBbBfA8] = true; //@devilking6105\r\n\r\n        isRegistrar[0x7b9a421575f72D17331CA7433aeA46eC5d5B2739] = true; //@mancinotech\r\n        isRegistrar[0x80484108D571f4Ee96521710F5D027E9d2F59AdF] = true; //@furt_tech\r\n        isRegistrar[0xE7D3039dFDa68Ffa9Bc56e731CF9e8f85904703d] = true; //@theafrocoder\r\n        isRegistrar[0xe0B02A2652Caa79041f2798Fa615ec39bfBbBfA8] = true; //@devilking6105\r\n\r\n        registrarCount = 4;\r\n    }\r\n\r\n    // User Types: Project Founders(super admins), Registrars(admin group), Witnesses, Registrant\r\n\r\n    // Registrar list for public listing rights\r\n    mapping(address => bool) public isFounder;\r\n    mapping(address => bool) public isRegistrar;\r\n    uint256 public registrarCount;\r\n\r\n    modifier onlyFounder() {\r\n        require(isFounder[msg.sender], \"Only Project Founders can perform this operation.\");\r\n        _;\r\n    }\r\n\r\n    modifier onlyRegistrar() {\r\n        require(isRegistrar[msg.sender], \"Only authorized registrars can perform this operation.\");\r\n        _;\r\n    }\r\n\r\n    struct IdType {\r\n        bool dns; // domain names\r\n        bool email; // email addresses\r\n        bool web1; // any other web1 address\r\n        bool social; // public profiles, can include any service offering login APIs\r\n        bool service; // additional identity service including KYC\r\n        bool web2; // any other form of web2 identity\r\n        bool web3; // web3 addresses that don't follow a 160 bit (0xabc123) format ie xrp.rU6K7V3Po4snVhBBaU29sesqs2qTQJWDw1\r\n        bool hashed; // a hashed id for an extra layer of privacy\r\n    }\r\n\r\n    // encoding/decoding functions for representing Type as a uint8 value\r\n    function encodeIdType(IdType memory idType) internal pure returns (uint8) {\r\n        uint8 encoded;\r\n        if (idType.dns) encoded |= 0x01;\r\n        if (idType.email) encoded |= 0x02;\r\n        if (idType.web1) encoded |= 0x04;\r\n        if (idType.social) encoded |= 0x08;\r\n        if (idType.service) encoded |= 0x10;\r\n        if (idType.web2) encoded |= 0x20;\r\n        if (idType.web3) encoded |= 0x40;\r\n        if (idType.hashed) encoded |= 0x80;\r\n        return encoded;\r\n    }\r\n\r\n    function decodeIdType(uint8 encoded) internal pure returns (IdType memory) {\r\n        return IdType(\r\n            (encoded & 0x01) != 0,\r\n            (encoded & 0x02) != 0,\r\n            (encoded & 0x04) != 0,\r\n            (encoded & 0x08) != 0,\r\n            (encoded & 0x10) != 0,\r\n            (encoded & 0x20) != 0,\r\n            (encoded & 0x40) != 0,\r\n            (encoded & 0x80) != 0\r\n        );\r\n    }\r\n\r\n    struct IdStatus {\r\n        bool claimed; // once a request is made this bit will go true and will inicate someone has claimed this record\r\n        bool signed; // if approved by witness will be true\r\n        bool validated; // if approved by registrar will be true\r\n        bool rejected; // if registrar or witness rejects the request this bit will be true\r\n        bool listed; // if the ID is public or if the user pushes their ID public this will be true\r\n        bool frozen; // ID can be frozen by any registrar who offers a conflicting record.\r\n        bool reserved; // web3 addresses that don't follow a 160 bit (0xabc123) format ie xrp.rU6K7V3Po4snVhBBaU29sesqs2qTQJWDw1\r\n        bool futureUse; // a hashed id for an extra layer of privacy\r\n    }\r\n\r\n    function encodeIdStatus(IdStatus memory idStatus) internal pure returns (uint8) {\r\n        uint8 encoded;\r\n        if (idStatus.claimed) encoded |= 0x01;\r\n        if (idStatus.signed) encoded |= 0x02;\r\n        if (idStatus.validated) encoded |= 0x04;\r\n        if (idStatus.rejected) encoded |= 0x08;\r\n        if (idStatus.listed) encoded |= 0x10;\r\n        if (idStatus.frozen) encoded |= 0x20;\r\n        if (idStatus.reserved) encoded |= 0x40;\r\n        if (idStatus.futureUse) encoded |= 0x80;\r\n        return encoded;\r\n    }\r\n\r\n    function decodeIdStatus(uint8 encoded) internal pure returns (IdStatus memory) {\r\n        return IdStatus(\r\n            (encoded & 0x01) != 0,\r\n            (encoded & 0x02) != 0,\r\n            (encoded & 0x04) != 0,\r\n            (encoded & 0x08) != 0,\r\n            (encoded & 0x10) != 0,\r\n            (encoded & 0x20) != 0,\r\n            (encoded & 0x40) != 0,\r\n            (encoded & 0x80) != 0\r\n        );\r\n    }\r\n\r\n    struct Signature {\r\n        bytes32 r;\r\n        bytes32 s;\r\n        uint8 v;\r\n    }\r\n    function signatureAddress(\r\n        Signature memory _signature,\r\n        string memory _message\r\n    ) internal pure returns (address) {\r\n        bytes32 messageHash = keccak256(abi.encodePacked(_message));\r\n        address recoveredAddress = ecrecover(\r\n            messageHash,\r\n            _signature.v,\r\n            _signature.r,\r\n            _signature.s\r\n        );\r\n        return recoveredAddress;\r\n    }\r\n\r\n    function signatureMatches(\r\n        Signature memory _signature,\r\n        address _signer,\r\n        string memory _message\r\n    ) internal pure returns (bool) {\r\n        address recoveredAddress = signatureAddress(_signature, _message);\r\n        return (recoveredAddress != address(0) && recoveredAddress == _signer);\r\n    }\r\n    function parseSignature(string memory signature) internal pure returns (Signature memory) {\r\n        require(bytes(signature).length == 132, \"Invalid signature length\");\r\n\r\n        bytes32 r = bytesToBytes32(bytes(signature), 0);\r\n        bytes32 s = bytesToBytes32(bytes(signature), 32);\r\n        uint8 v = uint8(bytes(signature)[64]);\r\n\r\n        return Signature(r, s, v);\r\n    }\r\n\r\n    function bytesToBytes32(bytes memory b, uint256 offset) internal pure returns (bytes32 result) {\r\n        require(b.length >= offset + 32, \"Invalid bytes length\");\r\n\r\n        assembly {\r\n            result := mload(add(b, add(32, offset)))\r\n        }\r\n    }\r\n\r\n    struct SigType {\r\n        bool witness;\r\n        bool registrar;  \r\n        bool authority;\r\n        bool kyc;\r\n    }\r\n\r\n    struct ClaimedId {\r\n        IdType idType;\r\n        IdStatus idStatus;\r\n        Signature registrant;\r\n    }\r\n    mapping(address => mapping(string => mapping (address => ClaimedId))) public claimedRecord; // Claimed ID record can be found at witness => idName => registrant  \r\n\r\n    struct IdReceipt {\r\n        ClaimedId claimedId;\r\n        SigType sigType;\r\n        Signature signer;\r\n    }\r\n    mapping(address => mapping(string => IdReceipt)) public signerReceipt; // Signer could be a witness or registrar record exists at signer => idName\r\n    mapping(address => mapping(string => IdReceipt[])) idSignatures; // A list of all IdReceipts pushed to a registrant's identity record found at registrant => idName []\r\n\r\n    struct IdRecord {\r\n        IdReceipt signedId;\r\n        uint totalSigCount;\r\n        uint witnessSigCount;\r\n        uint registrarSigCount;\r\n        uint authoritySigCount;\r\n        uint kycSigCount;\r\n    }\r\n    mapping(address => mapping(string => IdRecord)) public signedRecord; // The base record on which to collect additional signatures record exists at registrant => idName\r\n    mapping(string => IdRecord) public i; // the public record\r\n\r\n    event ClaimedIdAlert(\r\n        string indexed signedId,\r\n        ClaimedId request\r\n    );\r\n    function claimIdentity(\r\n        address _witness,\r\n        string memory _idName,\r\n        Signature memory _signature\r\n    ) public {\r\n        require(\r\n            msg.sender != _witness,\r\n            \"Witness cannot sign their own request\"\r\n        );\r\n        require(\r\n            !claimedRecord[_witness][_idName][msg.sender].idStatus.rejected,\r\n            \"The witness rejected the claim this identity belongs to you.\"\r\n        );\r\n        require(\r\n            !claimedRecord[_witness][_idName][msg.sender].idStatus.claimed,\r\n            \"The witness already has this request, have them sign it to continue.\"\r\n        );\r\n\r\n        require(\r\n            signatureMatches(_signature, msg.sender, _idName),\r\n            \"Invalid signature. you did not sign string _idName with Signature(v,r,s) _signature\"\r\n        );\r\n\r\n        // Initialize request\r\n        // ideally create a function which takes _idName and returns encoded IdType based on string rules, if invalid 0. require type!0 \r\n        IdType memory claimType = IdType(true,false,false,false,false,false,false,false); // should be user defined/auto detected\r\n        IdStatus memory claimStatus = IdStatus(true,false,false,false,true,false,false,false); // listed should be defined by user for private records\r\n        ClaimedId memory claimRecord = ClaimedId(claimType, claimStatus, _signature);\r\n        \r\n        // Store request\r\n        claimedRecord[_witness][_idName][msg.sender] = claimRecord; // storing the claim with the witness to sign or reject\r\n        \r\n        // emit alert\r\n        emit ClaimedIdAlert(_idName, claimRecord);\r\n    }\r\n\r\n    function signIdentity(\r\n        string memory _idName,\r\n        address _registrant,\r\n        Signature memory _signature\r\n    ) public {\r\n\r\n        ClaimedId memory request = claimedRecord[msg.sender][_idName][_registrant];\r\n        require(\r\n            request.idStatus.claimed,\r\n            \"The registrant must request you sign the claimed ID before you can sign it.\"\r\n        );\r\n        require(\r\n            !request.idStatus.signed,\r\n            \"You have already signed this ID.\"\r\n        );\r\n        // signature checks\r\n        require(\r\n            signatureMatches(request.registrant, _registrant, _idName),\r\n            \"Signature, registrant signature invalid.\"\r\n        );\r\n        require(\r\n            signatureMatches(_signature, msg.sender, _idName),\r\n            \"Invalid signature. you did not sign string _idName with Signature(v,r,s) _signature\"\r\n        );\r\n\r\n        IdRecord memory record = signedRecord[_registrant][_idName];\r\n        SigType memory sigType;\r\n\r\n        // define signature type and incriment counters\r\n        if (isRegistrar[msg.sender]) {\r\n            record.registrarSigCount ++;\r\n            sigType = SigType(false, true, false, false);\r\n        } else {\r\n            record.witnessSigCount ++;\r\n            sigType = SigType(true, false, false, false);\r\n        }\r\n\r\n        record.totalSigCount ++;\r\n\r\n        // Sign the receipt\r\n        IdReceipt memory receipt = IdReceipt(request, sigType, _signature);\r\n        \r\n        // add claim request to signedRecord (if it doesn't already exist)\r\n        if (!record.signedId.claimedId.idStatus.claimed) {\r\n            receipt.claimedId = request;\r\n        }\r\n\r\n        // Store receipt with signer and registrant\r\n        signerReceipt[msg.sender][_idName] = receipt;\r\n        idSignatures[_registrant][_idName].push(receipt);\r\n\r\n        if(record.signedId.claimedId.idStatus.listed && isRegistrar[msg.sender]) {\r\n            i[_idName] = record;\r\n        }\r\n    }\r\n}",
  "sourcePath": "D:\\TW3\\RFC\\IDS\\IdentityDirectoryService\\contracts\\ids.sol",
  "compiler": {
    "name": "solc",
    "version": "0.8.6+commit.11564f7e.Emscripten.clang"
  },
  "schemaVersion": "3.4.14",
  "updatedAt": "2023-07-10T05:08:00.971Z",
  "networkType": "ethereum",
  "devdoc": {
    "kind": "dev",
    "methods": {},
    "version": 1
  },
  "userdoc": {
    "kind": "user",
    "methods": {},
    "version": 1
  }
}